{
  "_format": "hh-sol-artifact-1",
  "contractName": "Car",
  "sourceName": "contracts/Car.sol",
  "abi": [
    {
      "inputs": [],
      "stateMutability": "nonpayable",
      "type": "constructor"
    },
    {
      "inputs": [],
      "name": "AccessControlBadConfirmation",
      "type": "error"
    },
    {
      "inputs": [
        {
          "internalType": "address",
          "name": "account",
          "type": "address"
        },
        {
          "internalType": "bytes32",
          "name": "neededRole",
          "type": "bytes32"
        }
      ],
      "name": "AccessControlUnauthorizedAccount",
      "type": "error"
    },
    {
      "inputs": [
        {
          "internalType": "address",
          "name": "sender",
          "type": "address"
        },
        {
          "internalType": "uint256",
          "name": "tokenId",
          "type": "uint256"
        },
        {
          "internalType": "address",
          "name": "owner",
          "type": "address"
        }
      ],
      "name": "ERC721IncorrectOwner",
      "type": "error"
    },
    {
      "inputs": [
        {
          "internalType": "address",
          "name": "operator",
          "type": "address"
        },
        {
          "internalType": "uint256",
          "name": "tokenId",
          "type": "uint256"
        }
      ],
      "name": "ERC721InsufficientApproval",
      "type": "error"
    },
    {
      "inputs": [
        {
          "internalType": "address",
          "name": "approver",
          "type": "address"
        }
      ],
      "name": "ERC721InvalidApprover",
      "type": "error"
    },
    {
      "inputs": [
        {
          "internalType": "address",
          "name": "operator",
          "type": "address"
        }
      ],
      "name": "ERC721InvalidOperator",
      "type": "error"
    },
    {
      "inputs": [
        {
          "internalType": "address",
          "name": "owner",
          "type": "address"
        }
      ],
      "name": "ERC721InvalidOwner",
      "type": "error"
    },
    {
      "inputs": [
        {
          "internalType": "address",
          "name": "receiver",
          "type": "address"
        }
      ],
      "name": "ERC721InvalidReceiver",
      "type": "error"
    },
    {
      "inputs": [
        {
          "internalType": "address",
          "name": "sender",
          "type": "address"
        }
      ],
      "name": "ERC721InvalidSender",
      "type": "error"
    },
    {
      "inputs": [
        {
          "internalType": "uint256",
          "name": "tokenId",
          "type": "uint256"
        }
      ],
      "name": "ERC721NonexistentToken",
      "type": "error"
    },
    {
      "anonymous": false,
      "inputs": [
        {
          "indexed": true,
          "internalType": "address",
          "name": "owner",
          "type": "address"
        },
        {
          "indexed": true,
          "internalType": "address",
          "name": "approved",
          "type": "address"
        },
        {
          "indexed": true,
          "internalType": "uint256",
          "name": "tokenId",
          "type": "uint256"
        }
      ],
      "name": "Approval",
      "type": "event"
    },
    {
      "anonymous": false,
      "inputs": [
        {
          "indexed": true,
          "internalType": "address",
          "name": "owner",
          "type": "address"
        },
        {
          "indexed": true,
          "internalType": "address",
          "name": "operator",
          "type": "address"
        },
        {
          "indexed": false,
          "internalType": "bool",
          "name": "approved",
          "type": "bool"
        }
      ],
      "name": "ApprovalForAll",
      "type": "event"
    },
    {
      "anonymous": false,
      "inputs": [
        {
          "indexed": true,
          "internalType": "address",
          "name": "garageAddress",
          "type": "address"
        },
        {
          "indexed": false,
          "internalType": "string",
          "name": "name",
          "type": "string"
        }
      ],
      "name": "GarageRegistered",
      "type": "event"
    },
    {
      "anonymous": false,
      "inputs": [
        {
          "indexed": true,
          "internalType": "uint256",
          "name": "tokenId",
          "type": "uint256"
        },
        {
          "indexed": false,
          "internalType": "string",
          "name": "description",
          "type": "string"
        },
        {
          "indexed": false,
          "internalType": "uint256",
          "name": "date",
          "type": "uint256"
        }
      ],
      "name": "RepairAdded",
      "type": "event"
    },
    {
      "anonymous": false,
      "inputs": [
        {
          "indexed": true,
          "internalType": "bytes32",
          "name": "role",
          "type": "bytes32"
        },
        {
          "indexed": true,
          "internalType": "bytes32",
          "name": "previousAdminRole",
          "type": "bytes32"
        },
        {
          "indexed": true,
          "internalType": "bytes32",
          "name": "newAdminRole",
          "type": "bytes32"
        }
      ],
      "name": "RoleAdminChanged",
      "type": "event"
    },
    {
      "anonymous": false,
      "inputs": [
        {
          "indexed": true,
          "internalType": "bytes32",
          "name": "role",
          "type": "bytes32"
        },
        {
          "indexed": true,
          "internalType": "address",
          "name": "account",
          "type": "address"
        },
        {
          "indexed": true,
          "internalType": "address",
          "name": "sender",
          "type": "address"
        }
      ],
      "name": "RoleGranted",
      "type": "event"
    },
    {
      "anonymous": false,
      "inputs": [
        {
          "indexed": true,
          "internalType": "bytes32",
          "name": "role",
          "type": "bytes32"
        },
        {
          "indexed": true,
          "internalType": "address",
          "name": "account",
          "type": "address"
        },
        {
          "indexed": true,
          "internalType": "address",
          "name": "sender",
          "type": "address"
        }
      ],
      "name": "RoleRevoked",
      "type": "event"
    },
    {
      "anonymous": false,
      "inputs": [
        {
          "indexed": true,
          "internalType": "uint256",
          "name": "tokenId",
          "type": "uint256"
        },
        {
          "indexed": false,
          "internalType": "enum Car.VehicleState",
          "name": "newState",
          "type": "uint8"
        }
      ],
      "name": "StateChanged",
      "type": "event"
    },
    {
      "anonymous": false,
      "inputs": [
        {
          "indexed": true,
          "internalType": "uint256",
          "name": "tokenId",
          "type": "uint256"
        },
        {
          "indexed": false,
          "internalType": "bool",
          "name": "isValid",
          "type": "bool"
        },
        {
          "indexed": false,
          "internalType": "uint256",
          "name": "expirationDate",
          "type": "uint256"
        }
      ],
      "name": "TechnicalControlUpdated",
      "type": "event"
    },
    {
      "anonymous": false,
      "inputs": [
        {
          "indexed": true,
          "internalType": "address",
          "name": "from",
          "type": "address"
        },
        {
          "indexed": true,
          "internalType": "address",
          "name": "to",
          "type": "address"
        },
        {
          "indexed": true,
          "internalType": "uint256",
          "name": "tokenId",
          "type": "uint256"
        }
      ],
      "name": "Transfer",
      "type": "event"
    },
    {
      "inputs": [],
      "name": "ADMIN_ROLE",
      "outputs": [
        {
          "internalType": "bytes32",
          "name": "",
          "type": "bytes32"
        }
      ],
      "stateMutability": "view",
      "type": "function"
    },
    {
      "inputs": [],
      "name": "DEFAULT_ADMIN_ROLE",
      "outputs": [
        {
          "internalType": "bytes32",
          "name": "",
          "type": "bytes32"
        }
      ],
      "stateMutability": "view",
      "type": "function"
    },
    {
      "inputs": [],
      "name": "GARAGE_ROLE",
      "outputs": [
        {
          "internalType": "bytes32",
          "name": "",
          "type": "bytes32"
        }
      ],
      "stateMutability": "view",
      "type": "function"
    },
    {
      "inputs": [
        {
          "internalType": "uint256",
          "name": "tokenId",
          "type": "uint256"
        },
        {
          "internalType": "string",
          "name": "description",
          "type": "string"
        },
        {
          "components": [
            {
              "internalType": "string",
              "name": "name",
              "type": "string"
            },
            {
              "internalType": "string",
              "name": "location",
              "type": "string"
            },
            {
              "internalType": "string",
              "name": "phoneNumber",
              "type": "string"
            },
            {
              "internalType": "bool",
              "name": "isRegistered",
              "type": "bool"
            }
          ],
          "internalType": "struct Car.Garage",
          "name": "garage",
          "type": "tuple"
        }
      ],
      "name": "addRepair",
      "outputs": [],
      "stateMutability": "nonpayable",
      "type": "function"
    },
    {
      "inputs": [
        {
          "internalType": "address",
          "name": "to",
          "type": "address"
        },
        {
          "internalType": "uint256",
          "name": "tokenId",
          "type": "uint256"
        }
      ],
      "name": "approve",
      "outputs": [],
      "stateMutability": "nonpayable",
      "type": "function"
    },
    {
      "inputs": [
        {
          "internalType": "address",
          "name": "owner",
          "type": "address"
        }
      ],
      "name": "balanceOf",
      "outputs": [
        {
          "internalType": "uint256",
          "name": "",
          "type": "uint256"
        }
      ],
      "stateMutability": "view",
      "type": "function"
    },
    {
      "inputs": [
        {
          "internalType": "uint256",
          "name": "tokenId",
          "type": "uint256"
        },
        {
          "internalType": "enum Car.VehicleState",
          "name": "state",
          "type": "uint8"
        }
      ],
      "name": "changeState",
      "outputs": [],
      "stateMutability": "nonpayable",
      "type": "function"
    },
    {
      "inputs": [
        {
          "internalType": "uint256",
          "name": "tokenId",
          "type": "uint256"
        }
      ],
      "name": "getApproved",
      "outputs": [
        {
          "internalType": "address",
          "name": "",
          "type": "address"
        }
      ],
      "stateMutability": "view",
      "type": "function"
    },
    {
      "inputs": [
        {
          "internalType": "uint256",
          "name": "tokenId",
          "type": "uint256"
        }
      ],
      "name": "getRepairCount",
      "outputs": [
        {
          "internalType": "uint256",
          "name": "",
          "type": "uint256"
        }
      ],
      "stateMutability": "view",
      "type": "function"
    },
    {
      "inputs": [
        {
          "internalType": "uint256",
          "name": "tokenId",
          "type": "uint256"
        },
        {
          "internalType": "uint256",
          "name": "index",
          "type": "uint256"
        }
      ],
      "name": "getRepairDetails",
      "outputs": [
        {
          "internalType": "string",
          "name": "description",
          "type": "string"
        },
        {
          "internalType": "string",
          "name": "garageName",
          "type": "string"
        },
        {
          "internalType": "string",
          "name": "garageLocation",
          "type": "string"
        },
        {
          "internalType": "string",
          "name": "garagePhone",
          "type": "string"
        },
        {
          "internalType": "uint256",
          "name": "date",
          "type": "uint256"
        }
      ],
      "stateMutability": "view",
      "type": "function"
    },
    {
      "inputs": [
        {
          "internalType": "bytes32",
          "name": "role",
          "type": "bytes32"
        }
      ],
      "name": "getRoleAdmin",
      "outputs": [
        {
          "internalType": "bytes32",
          "name": "",
          "type": "bytes32"
        }
      ],
      "stateMutability": "view",
      "type": "function"
    },
    {
      "inputs": [
        {
          "internalType": "uint256",
          "name": "tokenId",
          "type": "uint256"
        }
      ],
      "name": "getTechnicalControl",
      "outputs": [
        {
          "internalType": "bool",
          "name": "isValid",
          "type": "bool"
        },
        {
          "internalType": "uint256",
          "name": "expirationDate",
          "type": "uint256"
        }
      ],
      "stateMutability": "view",
      "type": "function"
    },
    {
      "inputs": [
        {
          "internalType": "uint256",
          "name": "tokenId",
          "type": "uint256"
        }
      ],
      "name": "getVehicleInformations",
      "outputs": [
        {
          "internalType": "string",
          "name": "brand",
          "type": "string"
        },
        {
          "internalType": "string",
          "name": "chassisNumber",
          "type": "string"
        },
        {
          "internalType": "string",
          "name": "registrationCertificate",
          "type": "string"
        },
        {
          "internalType": "enum Car.VehicleState",
          "name": "state",
          "type": "uint8"
        }
      ],
      "stateMutability": "view",
      "type": "function"
    },
    {
      "inputs": [
        {
          "internalType": "bytes32",
          "name": "role",
          "type": "bytes32"
        },
        {
          "internalType": "address",
          "name": "account",
          "type": "address"
        }
      ],
      "name": "grantRole",
      "outputs": [],
      "stateMutability": "nonpayable",
      "type": "function"
    },
    {
      "inputs": [
        {
          "internalType": "bytes32",
          "name": "role",
          "type": "bytes32"
        },
        {
          "internalType": "address",
          "name": "account",
          "type": "address"
        }
      ],
      "name": "hasRole",
      "outputs": [
        {
          "internalType": "bool",
          "name": "",
          "type": "bool"
        }
      ],
      "stateMutability": "view",
      "type": "function"
    },
    {
      "inputs": [
        {
          "internalType": "address",
          "name": "owner",
          "type": "address"
        },
        {
          "internalType": "address",
          "name": "operator",
          "type": "address"
        }
      ],
      "name": "isApprovedForAll",
      "outputs": [
        {
          "internalType": "bool",
          "name": "",
          "type": "bool"
        }
      ],
      "stateMutability": "view",
      "type": "function"
    },
    {
      "inputs": [
        {
          "internalType": "address",
          "name": "to",
          "type": "address"
        },
        {
          "internalType": "uint256",
          "name": "tokenId",
          "type": "uint256"
        },
        {
          "internalType": "string",
          "name": "brand",
          "type": "string"
        },
        {
          "internalType": "string",
          "name": "chassisNumber",
          "type": "string"
        },
        {
          "internalType": "string",
          "name": "registrationCertificate",
          "type": "string"
        },
        {
          "internalType": "enum Car.VehicleState",
          "name": "state",
          "type": "uint8"
        },
        {
          "components": [
            {
              "internalType": "bool",
              "name": "isValid",
              "type": "bool"
            },
            {
              "internalType": "uint256",
              "name": "expirationDate",
              "type": "uint256"
            }
          ],
          "internalType": "struct Car.TechnicalControl",
          "name": "technicalControl",
          "type": "tuple"
        }
      ],
      "name": "mintVehicle",
      "outputs": [],
      "stateMutability": "nonpayable",
      "type": "function"
    },
    {
      "inputs": [],
      "name": "name",
      "outputs": [
        {
          "internalType": "string",
          "name": "",
          "type": "string"
        }
      ],
      "stateMutability": "view",
      "type": "function"
    },
    {
      "inputs": [
        {
          "internalType": "uint256",
          "name": "tokenId",
          "type": "uint256"
        }
      ],
      "name": "ownerOf",
      "outputs": [
        {
          "internalType": "address",
          "name": "",
          "type": "address"
        }
      ],
      "stateMutability": "view",
      "type": "function"
    },
    {
      "inputs": [
        {
          "internalType": "address",
          "name": "garageAddress",
          "type": "address"
        },
        {
          "internalType": "string",
          "name": "name",
          "type": "string"
        },
        {
          "internalType": "string",
          "name": "location",
          "type": "string"
        },
        {
          "internalType": "string",
          "name": "phoneNumber",
          "type": "string"
        }
      ],
      "name": "registerGarage",
      "outputs": [],
      "stateMutability": "nonpayable",
      "type": "function"
    },
    {
      "inputs": [
        {
          "internalType": "bytes32",
          "name": "role",
          "type": "bytes32"
        },
        {
          "internalType": "address",
          "name": "callerConfirmation",
          "type": "address"
        }
      ],
      "name": "renounceRole",
      "outputs": [],
      "stateMutability": "nonpayable",
      "type": "function"
    },
    {
      "inputs": [
        {
          "internalType": "bytes32",
          "name": "role",
          "type": "bytes32"
        },
        {
          "internalType": "address",
          "name": "account",
          "type": "address"
        }
      ],
      "name": "revokeRole",
      "outputs": [],
      "stateMutability": "nonpayable",
      "type": "function"
    },
    {
      "inputs": [
        {
          "internalType": "address",
          "name": "from",
          "type": "address"
        },
        {
          "internalType": "address",
          "name": "to",
          "type": "address"
        },
        {
          "internalType": "uint256",
          "name": "tokenId",
          "type": "uint256"
        }
      ],
      "name": "safeTransferFrom",
      "outputs": [],
      "stateMutability": "nonpayable",
      "type": "function"
    },
    {
      "inputs": [
        {
          "internalType": "address",
          "name": "from",
          "type": "address"
        },
        {
          "internalType": "address",
          "name": "to",
          "type": "address"
        },
        {
          "internalType": "uint256",
          "name": "tokenId",
          "type": "uint256"
        },
        {
          "internalType": "bytes",
          "name": "data",
          "type": "bytes"
        }
      ],
      "name": "safeTransferFrom",
      "outputs": [],
      "stateMutability": "nonpayable",
      "type": "function"
    },
    {
      "inputs": [
        {
          "internalType": "address",
          "name": "operator",
          "type": "address"
        },
        {
          "internalType": "bool",
          "name": "approved",
          "type": "bool"
        }
      ],
      "name": "setApprovalForAll",
      "outputs": [],
      "stateMutability": "nonpayable",
      "type": "function"
    },
    {
      "inputs": [
        {
          "internalType": "bytes4",
          "name": "interfaceId",
          "type": "bytes4"
        }
      ],
      "name": "supportsInterface",
      "outputs": [
        {
          "internalType": "bool",
          "name": "",
          "type": "bool"
        }
      ],
      "stateMutability": "view",
      "type": "function"
    },
    {
      "inputs": [],
      "name": "symbol",
      "outputs": [
        {
          "internalType": "string",
          "name": "",
          "type": "string"
        }
      ],
      "stateMutability": "view",
      "type": "function"
    },
    {
      "inputs": [
        {
          "internalType": "uint256",
          "name": "tokenId",
          "type": "uint256"
        }
      ],
      "name": "tokenURI",
      "outputs": [
        {
          "internalType": "string",
          "name": "",
          "type": "string"
        }
      ],
      "stateMutability": "view",
      "type": "function"
    },
    {
      "inputs": [
        {
          "internalType": "address",
          "name": "from",
          "type": "address"
        },
        {
          "internalType": "address",
          "name": "to",
          "type": "address"
        },
        {
          "internalType": "uint256",
          "name": "tokenId",
          "type": "uint256"
        }
      ],
      "name": "transferFrom",
      "outputs": [],
      "stateMutability": "nonpayable",
      "type": "function"
    },
    {
      "inputs": [
        {
          "internalType": "uint256",
          "name": "tokenId",
          "type": "uint256"
        },
        {
          "internalType": "bool",
          "name": "isValid",
          "type": "bool"
        },
        {
          "internalType": "uint256",
          "name": "expirationDate",
          "type": "uint256"
        }
      ],
      "name": "updateTechnicalControl",
      "outputs": [],
      "stateMutability": "nonpayable",
      "type": "function"
    }
  ],
  "bytecode": "0x60806040523480156200001157600080fd5b506040518060400160405280600381526020017f43617200000000000000000000000000000000000000000000000000000000008152506040518060400160405280600381526020017f434152000000000000000000000000000000000000000000000000000000000081525081600090816200008f9190620004e4565b508060019081620000a19190620004e4565b505050620000b96000801b33620000f360201b60201c565b50620000ec7ff9d6c25e75c69e9d55faaaafdda02ff242e444fc05c67ba39c9e7e9f21bfacbb33620000f360201b60201c565b50620005cb565b6000620001078383620001f760201b60201c565b620001ec5760016006600085815260200190815260200160002060000160008473ffffffffffffffffffffffffffffffffffffffff1673ffffffffffffffffffffffffffffffffffffffff16815260200190815260200160002060006101000a81548160ff021916908315150217905550620001886200026260201b60201c565b73ffffffffffffffffffffffffffffffffffffffff168273ffffffffffffffffffffffffffffffffffffffff16847f2f8788117e7eff1d82e926ec794901d17c78024a50270940304540a733656f0d60405160405180910390a460019050620001f1565b600090505b92915050565b60006006600084815260200190815260200160002060000160008373ffffffffffffffffffffffffffffffffffffffff1673ffffffffffffffffffffffffffffffffffffffff16815260200190815260200160002060009054906101000a900460ff16905092915050565b600033905090565b600081519050919050565b7f4e487b7100000000000000000000000000000000000000000000000000000000600052604160045260246000fd5b7f4e487b7100000000000000000000000000000000000000000000000000000000600052602260045260246000fd5b60006002820490506001821680620002ec57607f821691505b602082108103620003025762000301620002a4565b5b50919050565b60008190508160005260206000209050919050565b60006020601f8301049050919050565b600082821b905092915050565b6000600883026200036c7fffffffffffffffffffffffffffffffffffffffffffffffffffffffffffffffff826200032d565b6200037886836200032d565b95508019841693508086168417925050509392505050565b6000819050919050565b6000819050919050565b6000620003c5620003bf620003b98462000390565b6200039a565b62000390565b9050919050565b6000819050919050565b620003e183620003a4565b620003f9620003f082620003cc565b8484546200033a565b825550505050565b600090565b6200041062000401565b6200041d818484620003d6565b505050565b5b8181101562000445576200043960008262000406565b60018101905062000423565b5050565b601f82111562000494576200045e8162000308565b62000469846200031d565b8101602085101562000479578190505b6200049162000488856200031d565b83018262000422565b50505b505050565b600082821c905092915050565b6000620004b96000198460080262000499565b1980831691505092915050565b6000620004d48383620004a6565b9150826002028217905092915050565b620004ef826200026a565b67ffffffffffffffff8111156200050b576200050a62000275565b5b620005178254620002d3565b6200052482828562000449565b600060209050601f8311600181146200055c576000841562000547578287015190505b620005538582620004c6565b865550620005c3565b601f1984166200056c8662000308565b60005b8281101562000596578489015182556001820191506020850194506020810190506200056f565b86831015620005b65784890151620005b2601f891682620004a6565b8355505b6001600288020188555050505b505050505050565b613f1f80620005db6000396000f3fe608060405234801561001057600080fd5b50600436106101da5760003560e01c80636bb921ea11610104578063a217fddf116100a2578063c4022a8f11610071578063c4022a8f1461057a578063c87b56dd146105ad578063d547741f146105dd578063e985e9c5146105f9576101da565b8063a217fddf14610508578063a22cb46514610526578063b88d4fde14610542578063b96aeb9a1461055e576101da565b806370a08231116100de57806370a082311461046c57806375b238fc1461049c57806391d14854146104ba57806395d89b41146104ea576101da565b80636bb921ea146103fe5780636e630649146104325780636fd1c4741461044e576101da565b8063248a9ca31161017c57806342842e0e1161014b57806342842e0e1461036657806344c67d84146103825780636352211e1461039e5780636abf76ad146103ce576101da565b8063248a9ca3146102cd5780632891a6b2146102fd5780632f2ff15d1461032e57806336568abe1461034a576101da565b8063095ea7b3116101b8578063095ea7b31461025d5780630a05024e146102795780630a5192d51461029557806323b872dd146102b1576101da565b806301ffc9a7146101df57806306fdde031461020f578063081812fc1461022d575b600080fd5b6101f960048036038101906101f49190612bd2565b610629565b6040516102069190612c1a565b60405180910390f35b61021761063b565b6040516102249190612cc5565b60405180910390f35b61024760048036038101906102429190612d1d565b6106cd565b6040516102549190612d8b565b60405180910390f35b61027760048036038101906102729190612dd2565b6106e9565b005b610293600480360381019061028e9190613049565b6106ff565b005b6102af60048036038101906102aa91906130d4565b6108c9565b005b6102cb60048036038101906102c69190613127565b610a04565b005b6102e760048036038101906102e291906131b0565b610b06565b6040516102f491906131ec565b60405180910390f35b61031760048036038101906103129190612d1d565b610b26565b604051610325929190613216565b60405180910390f35b6103486004803603810190610343919061323f565b610bdb565b005b610364600480360381019061035f919061323f565b610bfd565b005b610380600480360381019061037b9190613127565b610c78565b005b61039c600480360381019061039791906132f4565b610c98565b005b6103b860048036038101906103b39190612d1d565b610d82565b6040516103c59190612d8b565b60405180910390f35b6103e860048036038101906103e39190612d1d565b610d94565b6040516103f591906133eb565b60405180910390f35b61041860048036038101906104139190613406565b610e2d565b604051610429959493929190613446565b60405180910390f35b61044c600480360381019061044791906134b5565b6111a3565b005b6104566112bf565b60405161046391906131ec565b60405180910390f35b610486600480360381019061048191906134f5565b6112e3565b60405161049391906133eb565b60405180910390f35b6104a461139d565b6040516104b191906131ec565b60405180910390f35b6104d460048036038101906104cf919061323f565b6113a4565b6040516104e19190612c1a565b60405180910390f35b6104f261140f565b6040516104ff9190612cc5565b60405180910390f35b6105106114a1565b60405161051d91906131ec565b60405180910390f35b610540600480360381019061053b9190613522565b6114a8565b005b61055c60048036038101906105579190613603565b6114be565b005b61057860048036038101906105739190613686565b6114db565b005b610594600480360381019061058f9190612d1d565b6116c0565b6040516105a494939291906137b8565b60405180910390f35b6105c760048036038101906105c29190612d1d565b611926565b6040516105d49190612cc5565b60405180910390f35b6105f760048036038101906105f2919061323f565b61198f565b005b610613600480360381019061060e9190613812565b6119b1565b6040516106209190612c1a565b60405180910390f35b600061063482611a45565b9050919050565b60606000805461064a90613881565b80601f016020809104026020016040519081016040528092919081815260200182805461067690613881565b80156106c35780601f10610698576101008083540402835291602001916106c3565b820191906000526020600020905b8154815290600101906020018083116106a657829003601f168201915b5050505050905090565b60006106d882611abf565b506106e282611b47565b9050919050565b6106fb82826106f6611b84565b611b8c565b5050565b7ff9d6c25e75c69e9d55faaaafdda02ff242e444fc05c67ba39c9e7e9f21bfacbb61072981611b9e565b600073ffffffffffffffffffffffffffffffffffffffff1661074a85610d82565b73ffffffffffffffffffffffffffffffffffffffff16036107a0576040517f08c379a0000000000000000000000000000000000000000000000000000000008152600401610797906138fe565b60405180910390fd5b600760008581526020019081526020016000206003016040518060600160405280858152602001848152602001428152509080600181540180825580915050600190039060005260206000209060060201600090919091909150600082015181600001908161080f9190613aca565b50602082015181600101600082015181600001908161082e9190613aca565b5060208201518160010190816108449190613aca565b50604082015181600201908161085a9190613aca565b5060608201518160030160006101000a81548160ff0219169083151502179055505050604082015181600501555050837f9274dcd803b1aea16796019f9deddf59d35567e98d3dd152f54e53c5e141254b84426040516108bb929190613b9c565b60405180910390a250505050565b7ff9d6c25e75c69e9d55faaaafdda02ff242e444fc05c67ba39c9e7e9f21bfacbb6108f381611b9e565b600073ffffffffffffffffffffffffffffffffffffffff1661091485610d82565b73ffffffffffffffffffffffffffffffffffffffff160361096a576040517f08c379a0000000000000000000000000000000000000000000000000000000008152600401610961906138fe565b60405180910390fd5b60405180604001604052808415158152602001838152506007600086815260200190815260200160002060050160008201518160000160006101000a81548160ff02191690831515021790555060208201518160010155905050837f8d62eac463b15fd21f46ba7e24f246d15d54ce88d4c94df1f280b87fcb04e81484846040516109f6929190613216565b60405180910390a250505050565b600073ffffffffffffffffffffffffffffffffffffffff168273ffffffffffffffffffffffffffffffffffffffff1603610a765760006040517f64a0ae92000000000000000000000000000000000000000000000000000000008152600401610a6d9190612d8b565b60405180910390fd5b6000610a8a8383610a85611b84565b611bb2565b90508373ffffffffffffffffffffffffffffffffffffffff168173ffffffffffffffffffffffffffffffffffffffff1614610b00578382826040517f64283d7b000000000000000000000000000000000000000000000000000000008152600401610af793929190613bcc565b60405180910390fd5b50505050565b600060066000838152602001908152602001600020600101549050919050565b600080600073ffffffffffffffffffffffffffffffffffffffff16610b4a84610d82565b73ffffffffffffffffffffffffffffffffffffffff1603610ba0576040517f08c379a0000000000000000000000000000000000000000000000000000000008152600401610b97906138fe565b60405180910390fd5b60006007600085815260200190815260200160002060050190508060000160009054906101000a900460ff1681600101549250925050915091565b610be482610b06565b610bed81611b9e565b610bf78383611dcc565b50505050565b610c05611b84565b73ffffffffffffffffffffffffffffffffffffffff168173ffffffffffffffffffffffffffffffffffffffff1614610c69576040517f6697b23200000000000000000000000000000000000000000000000000000000815260040160405180910390fd5b610c738282611ebe565b505050565b610c93838383604051806020016040528060008152506114be565b505050565b7ff9d6c25e75c69e9d55faaaafdda02ff242e444fc05c67ba39c9e7e9f21bfacbb610cc281611b9e565b610ccc8888611fb1565b600060076000898152602001908152602001600020905086816000019081610cf49190613aca565b5085816001019081610d069190613aca565b5084816002019081610d189190613aca565b50838160040160006101000a81548160ff02191690836002811115610d4057610d3f613741565b5b0217905550828160050160008201518160000160006101000a81548160ff02191690831515021790555060208201518160010155905050505050505050505050565b6000610d8d82611abf565b9050919050565b60008073ffffffffffffffffffffffffffffffffffffffff16610db683610d82565b73ffffffffffffffffffffffffffffffffffffffff1603610e0c576040517f08c379a0000000000000000000000000000000000000000000000000000000008152600401610e03906138fe565b60405180910390fd5b60076000838152602001908152602001600020600301805490509050919050565b60608060608060008073ffffffffffffffffffffffffffffffffffffffff16610e5588610d82565b73ffffffffffffffffffffffffffffffffffffffff1603610eab576040517f08c379a0000000000000000000000000000000000000000000000000000000008152600401610ea2906138fe565b60405180910390fd5b60076000888152602001908152602001600020600301805490508610610f06576040517f08c379a0000000000000000000000000000000000000000000000000000000008152600401610efd90613c4f565b60405180910390fd5b6000600760008981526020019081526020016000206003018781548110610f3057610f2f613c6f565b5b90600052602060002090600602019050806000018160010160000182600101600101836001016002018460050154848054610f6a90613881565b80601f0160208091040260200160405190810160405280929190818152602001828054610f9690613881565b8015610fe35780601f10610fb857610100808354040283529160200191610fe3565b820191906000526020600020905b815481529060010190602001808311610fc657829003601f168201915b50505050509450838054610ff690613881565b80601f016020809104026020016040519081016040528092919081815260200182805461102290613881565b801561106f5780601f106110445761010080835404028352916020019161106f565b820191906000526020600020905b81548152906001019060200180831161105257829003601f168201915b5050505050935082805461108290613881565b80601f01602080910402602001604051908101604052809291908181526020018280546110ae90613881565b80156110fb5780601f106110d0576101008083540402835291602001916110fb565b820191906000526020600020905b8154815290600101906020018083116110de57829003601f168201915b5050505050925081805461110e90613881565b80601f016020809104026020016040519081016040528092919081815260200182805461113a90613881565b80156111875780601f1061115c57610100808354040283529160200191611187565b820191906000526020600020905b81548152906001019060200180831161116a57829003601f168201915b5050505050915095509550955095509550509295509295909350565b7ff9d6c25e75c69e9d55faaaafdda02ff242e444fc05c67ba39c9e7e9f21bfacbb6111cd81611b9e565b600073ffffffffffffffffffffffffffffffffffffffff166111ee84610d82565b73ffffffffffffffffffffffffffffffffffffffff1603611244576040517f08c379a000000000000000000000000000000000000000000000000000000000815260040161123b906138fe565b60405180910390fd5b816007600085815260200190815260200160002060040160006101000a81548160ff0219169083600281111561127d5761127c613741565b5b0217905550827ffafe884515ca1fa5e0bf815ce87ef00b2cdaa0eee590d20376604937937a10bf836040516112b29190613c9e565b60405180910390a2505050565b7ff9d6c25e75c69e9d55faaaafdda02ff242e444fc05c67ba39c9e7e9f21bfacbb81565b60008073ffffffffffffffffffffffffffffffffffffffff168273ffffffffffffffffffffffffffffffffffffffff16036113565760006040517f89c62b6400000000000000000000000000000000000000000000000000000000815260040161134d9190612d8b565b60405180910390fd5b600360008373ffffffffffffffffffffffffffffffffffffffff1673ffffffffffffffffffffffffffffffffffffffff168152602001908152602001600020549050919050565b6000801b81565b60006006600084815260200190815260200160002060000160008373ffffffffffffffffffffffffffffffffffffffff1673ffffffffffffffffffffffffffffffffffffffff16815260200190815260200160002060009054906101000a900460ff16905092915050565b60606001805461141e90613881565b80601f016020809104026020016040519081016040528092919081815260200182805461144a90613881565b80156114975780601f1061146c57610100808354040283529160200191611497565b820191906000526020600020905b81548152906001019060200180831161147a57829003601f168201915b5050505050905090565b6000801b81565b6114ba6114b3611b84565b8383611fcf565b5050565b6114c9848484610a04565b6114d58484848461213e565b50505050565b6000801b6114e881611b9e565b600860008673ffffffffffffffffffffffffffffffffffffffff1673ffffffffffffffffffffffffffffffffffffffff16815260200190815260200160002060030160009054906101000a900460ff1615611578576040517f08c379a000000000000000000000000000000000000000000000000000000000815260040161156f90613d05565b60405180910390fd5b604051806080016040528085815260200184815260200183815260200160011515815250600860008773ffffffffffffffffffffffffffffffffffffffff1673ffffffffffffffffffffffffffffffffffffffff16815260200190815260200160002060008201518160000190816115f09190613aca565b5060208201518160010190816116069190613aca565b50604082015181600201908161161c9190613aca565b5060608201518160030160006101000a81548160ff02191690831515021790555090505061166a7ff9d6c25e75c69e9d55faaaafdda02ff242e444fc05c67ba39c9e7e9f21bfacbb86611dcc565b508473ffffffffffffffffffffffffffffffffffffffff167fcd20fb6b31c8010aeb468dafbaeb6e0f31f77bca0e01b209a9199b68d35c54f1856040516116b19190612cc5565b60405180910390a25050505050565b606080606060008073ffffffffffffffffffffffffffffffffffffffff166116e786610d82565b73ffffffffffffffffffffffffffffffffffffffff160361173d576040517f08c379a0000000000000000000000000000000000000000000000000000000008152600401611734906138fe565b60405180910390fd5b60006007600087815260200190815260200160002090508060000181600101826002018360040160009054906101000a900460ff1683805461177e90613881565b80601f01602080910402602001604051908101604052809291908181526020018280546117aa90613881565b80156117f75780601f106117cc576101008083540402835291602001916117f7565b820191906000526020600020905b8154815290600101906020018083116117da57829003601f168201915b5050505050935082805461180a90613881565b80601f016020809104026020016040519081016040528092919081815260200182805461183690613881565b80156118835780601f1061185857610100808354040283529160200191611883565b820191906000526020600020905b81548152906001019060200180831161186657829003601f168201915b5050505050925081805461189690613881565b80601f01602080910402602001604051908101604052809291908181526020018280546118c290613881565b801561190f5780601f106118e45761010080835404028352916020019161190f565b820191906000526020600020905b8154815290600101906020018083116118f257829003601f168201915b505050505091509450945094509450509193509193565b606061193182611abf565b50600061193c6122f5565b9050600081511161195c5760405180602001604052806000815250611987565b806119668461230c565b604051602001611977929190613d61565b6040516020818303038152906040525b915050919050565b61199882610b06565b6119a181611b9e565b6119ab8383611ebe565b50505050565b6000600560008473ffffffffffffffffffffffffffffffffffffffff1673ffffffffffffffffffffffffffffffffffffffff16815260200190815260200160002060008373ffffffffffffffffffffffffffffffffffffffff1673ffffffffffffffffffffffffffffffffffffffff16815260200190815260200160002060009054906101000a900460ff16905092915050565b60007f7965db0b000000000000000000000000000000000000000000000000000000007bffffffffffffffffffffffffffffffffffffffffffffffffffffffff1916827bffffffffffffffffffffffffffffffffffffffffffffffffffffffff19161480611ab85750611ab7826123da565b5b9050919050565b600080611acb836124bc565b9050600073ffffffffffffffffffffffffffffffffffffffff168173ffffffffffffffffffffffffffffffffffffffff1603611b3e57826040517f7e273289000000000000000000000000000000000000000000000000000000008152600401611b3591906133eb565b60405180910390fd5b80915050919050565b60006004600083815260200190815260200160002060009054906101000a900473ffffffffffffffffffffffffffffffffffffffff169050919050565b600033905090565b611b9983838360016124f9565b505050565b611baf81611baa611b84565b6126be565b50565b600080611bbe846124bc565b9050600073ffffffffffffffffffffffffffffffffffffffff168373ffffffffffffffffffffffffffffffffffffffff1614611c0057611bff81848661270f565b5b600073ffffffffffffffffffffffffffffffffffffffff168173ffffffffffffffffffffffffffffffffffffffff1614611c9157611c426000856000806124f9565b6001600360008373ffffffffffffffffffffffffffffffffffffffff1673ffffffffffffffffffffffffffffffffffffffff168152602001908152602001600020600082825403925050819055505b600073ffffffffffffffffffffffffffffffffffffffff168573ffffffffffffffffffffffffffffffffffffffff1614611d14576001600360008773ffffffffffffffffffffffffffffffffffffffff1673ffffffffffffffffffffffffffffffffffffffff168152602001908152602001600020600082825401925050819055505b846002600086815260200190815260200160002060006101000a81548173ffffffffffffffffffffffffffffffffffffffff021916908373ffffffffffffffffffffffffffffffffffffffff160217905550838573ffffffffffffffffffffffffffffffffffffffff168273ffffffffffffffffffffffffffffffffffffffff167fddf252ad1be2c89b69c2b068fc378daa952ba7f163c4a11628f55a4df523b3ef60405160405180910390a4809150509392505050565b6000611dd883836113a4565b611eb35760016006600085815260200190815260200160002060000160008473ffffffffffffffffffffffffffffffffffffffff1673ffffffffffffffffffffffffffffffffffffffff16815260200190815260200160002060006101000a81548160ff021916908315150217905550611e50611b84565b73ffffffffffffffffffffffffffffffffffffffff168273ffffffffffffffffffffffffffffffffffffffff16847f2f8788117e7eff1d82e926ec794901d17c78024a50270940304540a733656f0d60405160405180910390a460019050611eb8565b600090505b92915050565b6000611eca83836113a4565b15611fa65760006006600085815260200190815260200160002060000160008473ffffffffffffffffffffffffffffffffffffffff1673ffffffffffffffffffffffffffffffffffffffff16815260200190815260200160002060006101000a81548160ff021916908315150217905550611f43611b84565b73ffffffffffffffffffffffffffffffffffffffff168273ffffffffffffffffffffffffffffffffffffffff16847ff6391f5c32d9c69d2a47ea670b442974b53935d1edc7fd64eb21e047a839171b60405160405180910390a460019050611fab565b600090505b92915050565b611fcb8282604051806020016040528060008152506127d3565b5050565b600073ffffffffffffffffffffffffffffffffffffffff168273ffffffffffffffffffffffffffffffffffffffff160361204057816040517f5b08ba180000000000000000000000000000000000000000000000000000000081526004016120379190612d8b565b60405180910390fd5b80600560008573ffffffffffffffffffffffffffffffffffffffff1673ffffffffffffffffffffffffffffffffffffffff16815260200190815260200160002060008473ffffffffffffffffffffffffffffffffffffffff1673ffffffffffffffffffffffffffffffffffffffff16815260200190815260200160002060006101000a81548160ff0219169083151502179055508173ffffffffffffffffffffffffffffffffffffffff168373ffffffffffffffffffffffffffffffffffffffff167f17307eab39ab6107e8899845ad3d59bd9653f200f220920489ca2b5937696c31836040516121319190612c1a565b60405180910390a3505050565b60008373ffffffffffffffffffffffffffffffffffffffff163b11156122ef578273ffffffffffffffffffffffffffffffffffffffff1663150b7a02612182611b84565b8685856040518563ffffffff1660e01b81526004016121a49493929190613dda565b6020604051808303816000875af19250505080156121e057506040513d601f19601f820116820180604052508101906121dd9190613e3b565b60015b612264573d8060008114612210576040519150601f19603f3d011682016040523d82523d6000602084013e612215565b606091505b50600081510361225c57836040517f64a0ae920000000000000000000000000000000000000000000000000000000081526004016122539190612d8b565b60405180910390fd5b805181602001fd5b63150b7a0260e01b7bffffffffffffffffffffffffffffffffffffffffffffffffffffffff1916817bffffffffffffffffffffffffffffffffffffffffffffffffffffffff1916146122ed57836040517f64a0ae920000000000000000000000000000000000000000000000000000000081526004016122e49190612d8b565b60405180910390fd5b505b50505050565b606060405180602001604052806000815250905090565b60606000600161231b846127ef565b01905060008167ffffffffffffffff81111561233a57612339612e1c565b5b6040519080825280601f01601f19166020018201604052801561236c5781602001600182028036833780820191505090505b509050600082602001820190505b6001156123cf578080600190039150507f3031323334353637383961626364656600000000000000000000000000000000600a86061a8153600a85816123c3576123c2613e68565b5b0494506000850361237a575b819350505050919050565b60007f80ac58cd000000000000000000000000000000000000000000000000000000007bffffffffffffffffffffffffffffffffffffffffffffffffffffffff1916827bffffffffffffffffffffffffffffffffffffffffffffffffffffffff191614806124a557507f5b5e139f000000000000000000000000000000000000000000000000000000007bffffffffffffffffffffffffffffffffffffffffffffffffffffffff1916827bffffffffffffffffffffffffffffffffffffffffffffffffffffffff1916145b806124b557506124b482612942565b5b9050919050565b60006002600083815260200190815260200160002060009054906101000a900473ffffffffffffffffffffffffffffffffffffffff169050919050565b80806125325750600073ffffffffffffffffffffffffffffffffffffffff168273ffffffffffffffffffffffffffffffffffffffff1614155b1561266657600061254284611abf565b9050600073ffffffffffffffffffffffffffffffffffffffff168373ffffffffffffffffffffffffffffffffffffffff16141580156125ad57508273ffffffffffffffffffffffffffffffffffffffff168173ffffffffffffffffffffffffffffffffffffffff1614155b80156125c057506125be81846119b1565b155b1561260257826040517fa9fbf51f0000000000000000000000000000000000000000000000000000000081526004016125f99190612d8b565b60405180910390fd5b811561266457838573ffffffffffffffffffffffffffffffffffffffff168273ffffffffffffffffffffffffffffffffffffffff167f8c5be1e5ebec7d5bd14f71427d1e84f3dd0314c0f7b2291e5b200ac8c7c3b92560405160405180910390a45b505b836004600085815260200190815260200160002060006101000a81548173ffffffffffffffffffffffffffffffffffffffff021916908373ffffffffffffffffffffffffffffffffffffffff16021790555050505050565b6126c882826113a4565b61270b5780826040517fe2517d3f000000000000000000000000000000000000000000000000000000008152600401612702929190613e97565b60405180910390fd5b5050565b61271a8383836129ac565b6127ce57600073ffffffffffffffffffffffffffffffffffffffff168373ffffffffffffffffffffffffffffffffffffffff160361278f57806040517f7e27328900000000000000000000000000000000000000000000000000000000815260040161278691906133eb565b60405180910390fd5b81816040517f177e802f0000000000000000000000000000000000000000000000000000000081526004016127c5929190613ec0565b60405180910390fd5b505050565b6127dd8383612a6d565b6127ea600084848461213e565b505050565b600080600090507a184f03e93ff9f4daa797ed6e38ed64bf6a1f010000000000000000831061284d577a184f03e93ff9f4daa797ed6e38ed64bf6a1f010000000000000000838161284357612842613e68565b5b0492506040810190505b6d04ee2d6d415b85acef8100000000831061288a576d04ee2d6d415b85acef810000000083816128805761287f613e68565b5b0492506020810190505b662386f26fc1000083106128b957662386f26fc1000083816128af576128ae613e68565b5b0492506010810190505b6305f5e10083106128e2576305f5e10083816128d8576128d7613e68565b5b0492506008810190505b61271083106129075761271083816128fd576128fc613e68565b5b0492506004810190505b6064831061292a57606483816129205761291f613e68565b5b0492506002810190505b600a8310612939576001810190505b80915050919050565b60007f01ffc9a7000000000000000000000000000000000000000000000000000000007bffffffffffffffffffffffffffffffffffffffffffffffffffffffff1916827bffffffffffffffffffffffffffffffffffffffffffffffffffffffff1916149050919050565b60008073ffffffffffffffffffffffffffffffffffffffff168373ffffffffffffffffffffffffffffffffffffffff1614158015612a6457508273ffffffffffffffffffffffffffffffffffffffff168473ffffffffffffffffffffffffffffffffffffffff161480612a255750612a2484846119b1565b5b80612a6357508273ffffffffffffffffffffffffffffffffffffffff16612a4b83611b47565b73ffffffffffffffffffffffffffffffffffffffff16145b5b90509392505050565b600073ffffffffffffffffffffffffffffffffffffffff168273ffffffffffffffffffffffffffffffffffffffff1603612adf5760006040517f64a0ae92000000000000000000000000000000000000000000000000000000008152600401612ad69190612d8b565b60405180910390fd5b6000612aed83836000611bb2565b9050600073ffffffffffffffffffffffffffffffffffffffff168173ffffffffffffffffffffffffffffffffffffffff1614612b615760006040517f73c6ac6e000000000000000000000000000000000000000000000000000000008152600401612b589190612d8b565b60405180910390fd5b505050565b6000604051905090565b600080fd5b600080fd5b60007fffffffff0000000000000000000000000000000000000000000000000000000082169050919050565b612baf81612b7a565b8114612bba57600080fd5b50565b600081359050612bcc81612ba6565b92915050565b600060208284031215612be857612be7612b70565b5b6000612bf684828501612bbd565b91505092915050565b60008115159050919050565b612c1481612bff565b82525050565b6000602082019050612c2f6000830184612c0b565b92915050565b600081519050919050565b600082825260208201905092915050565b60005b83811015612c6f578082015181840152602081019050612c54565b60008484015250505050565b6000601f19601f8301169050919050565b6000612c9782612c35565b612ca18185612c40565b9350612cb1818560208601612c51565b612cba81612c7b565b840191505092915050565b60006020820190508181036000830152612cdf8184612c8c565b905092915050565b6000819050919050565b612cfa81612ce7565b8114612d0557600080fd5b50565b600081359050612d1781612cf1565b92915050565b600060208284031215612d3357612d32612b70565b5b6000612d4184828501612d08565b91505092915050565b600073ffffffffffffffffffffffffffffffffffffffff82169050919050565b6000612d7582612d4a565b9050919050565b612d8581612d6a565b82525050565b6000602082019050612da06000830184612d7c565b92915050565b612daf81612d6a565b8114612dba57600080fd5b50565b600081359050612dcc81612da6565b92915050565b60008060408385031215612de957612de8612b70565b5b6000612df785828601612dbd565b9250506020612e0885828601612d08565b9150509250929050565b600080fd5b600080fd5b7f4e487b7100000000000000000000000000000000000000000000000000000000600052604160045260246000fd5b612e5482612c7b565b810181811067ffffffffffffffff82111715612e7357612e72612e1c565b5b80604052505050565b6000612e86612b66565b9050612e928282612e4b565b919050565b600067ffffffffffffffff821115612eb257612eb1612e1c565b5b612ebb82612c7b565b9050602081019050919050565b82818337600083830152505050565b6000612eea612ee584612e97565b612e7c565b905082815260208101848484011115612f0657612f05612e17565b5b612f11848285612ec8565b509392505050565b600082601f830112612f2e57612f2d612e12565b5b8135612f3e848260208601612ed7565b91505092915050565b600080fd5b600080fd5b612f5a81612bff565b8114612f6557600080fd5b50565b600081359050612f7781612f51565b92915050565b600060808284031215612f9357612f92612f47565b5b612f9d6080612e7c565b9050600082013567ffffffffffffffff811115612fbd57612fbc612f4c565b5b612fc984828501612f19565b600083015250602082013567ffffffffffffffff811115612fed57612fec612f4c565b5b612ff984828501612f19565b602083015250604082013567ffffffffffffffff81111561301d5761301c612f4c565b5b61302984828501612f19565b604083015250606061303d84828501612f68565b60608301525092915050565b60008060006060848603121561306257613061612b70565b5b600061307086828701612d08565b935050602084013567ffffffffffffffff81111561309157613090612b75565b5b61309d86828701612f19565b925050604084013567ffffffffffffffff8111156130be576130bd612b75565b5b6130ca86828701612f7d565b9150509250925092565b6000806000606084860312156130ed576130ec612b70565b5b60006130fb86828701612d08565b935050602061310c86828701612f68565b925050604061311d86828701612d08565b9150509250925092565b6000806000606084860312156131405761313f612b70565b5b600061314e86828701612dbd565b935050602061315f86828701612dbd565b925050604061317086828701612d08565b9150509250925092565b6000819050919050565b61318d8161317a565b811461319857600080fd5b50565b6000813590506131aa81613184565b92915050565b6000602082840312156131c6576131c5612b70565b5b60006131d48482850161319b565b91505092915050565b6131e68161317a565b82525050565b600060208201905061320160008301846131dd565b92915050565b61321081612ce7565b82525050565b600060408201905061322b6000830185612c0b565b6132386020830184613207565b9392505050565b6000806040838503121561325657613255612b70565b5b60006132648582860161319b565b925050602061327585828601612dbd565b9150509250929050565b6003811061328c57600080fd5b50565b60008135905061329e8161327f565b92915050565b6000604082840312156132ba576132b9612f47565b5b6132c46040612e7c565b905060006132d484828501612f68565b60008301525060206132e884828501612d08565b60208301525092915050565b6000806000806000806000610100888a03121561331457613313612b70565b5b60006133228a828b01612dbd565b97505060206133338a828b01612d08565b965050604088013567ffffffffffffffff81111561335457613353612b75565b5b6133608a828b01612f19565b955050606088013567ffffffffffffffff81111561338157613380612b75565b5b61338d8a828b01612f19565b945050608088013567ffffffffffffffff8111156133ae576133ad612b75565b5b6133ba8a828b01612f19565b93505060a06133cb8a828b0161328f565b92505060c06133dc8a828b016132a4565b91505092959891949750929550565b60006020820190506134006000830184613207565b92915050565b6000806040838503121561341d5761341c612b70565b5b600061342b85828601612d08565b925050602061343c85828601612d08565b9150509250929050565b600060a08201905081810360008301526134608188612c8c565b905081810360208301526134748187612c8c565b905081810360408301526134888186612c8c565b9050818103606083015261349c8185612c8c565b90506134ab6080830184613207565b9695505050505050565b600080604083850312156134cc576134cb612b70565b5b60006134da85828601612d08565b92505060206134eb8582860161328f565b9150509250929050565b60006020828403121561350b5761350a612b70565b5b600061351984828501612dbd565b91505092915050565b6000806040838503121561353957613538612b70565b5b600061354785828601612dbd565b925050602061355885828601612f68565b9150509250929050565b600067ffffffffffffffff82111561357d5761357c612e1c565b5b61358682612c7b565b9050602081019050919050565b60006135a66135a184613562565b612e7c565b9050828152602081018484840111156135c2576135c1612e17565b5b6135cd848285612ec8565b509392505050565b600082601f8301126135ea576135e9612e12565b5b81356135fa848260208601613593565b91505092915050565b6000806000806080858703121561361d5761361c612b70565b5b600061362b87828801612dbd565b945050602061363c87828801612dbd565b935050604061364d87828801612d08565b925050606085013567ffffffffffffffff81111561366e5761366d612b75565b5b61367a878288016135d5565b91505092959194509250565b600080600080608085870312156136a05761369f612b70565b5b60006136ae87828801612dbd565b945050602085013567ffffffffffffffff8111156136cf576136ce612b75565b5b6136db87828801612f19565b935050604085013567ffffffffffffffff8111156136fc576136fb612b75565b5b61370887828801612f19565b925050606085013567ffffffffffffffff81111561372957613728612b75565b5b61373587828801612f19565b91505092959194509250565b7f4e487b7100000000000000000000000000000000000000000000000000000000600052602160045260246000fd5b6003811061378157613780613741565b5b50565b600081905061379282613770565b919050565b60006137a282613784565b9050919050565b6137b281613797565b82525050565b600060808201905081810360008301526137d28187612c8c565b905081810360208301526137e68186612c8c565b905081810360408301526137fa8185612c8c565b905061380960608301846137a9565b95945050505050565b6000806040838503121561382957613828612b70565b5b600061383785828601612dbd565b925050602061384885828601612dbd565b9150509250929050565b7f4e487b7100000000000000000000000000000000000000000000000000000000600052602260045260246000fd5b6000600282049050600182168061389957607f821691505b6020821081036138ac576138ab613852565b5b50919050565b7f56656869636c6520646f6573206e6f7420657869737400000000000000000000600082015250565b60006138e8601683612c40565b91506138f3826138b2565b602082019050919050565b60006020820190508181036000830152613917816138db565b9050919050565b60008190508160005260206000209050919050565b60006020601f8301049050919050565b600082821b905092915050565b6000600883026139807fffffffffffffffffffffffffffffffffffffffffffffffffffffffffffffffff82613943565b61398a8683613943565b95508019841693508086168417925050509392505050565b6000819050919050565b60006139c76139c26139bd84612ce7565b6139a2565b612ce7565b9050919050565b6000819050919050565b6139e1836139ac565b6139f56139ed826139ce565b848454613950565b825550505050565b600090565b613a0a6139fd565b613a158184846139d8565b505050565b5b81811015613a3957613a2e600082613a02565b600181019050613a1b565b5050565b601f821115613a7e57613a4f8161391e565b613a5884613933565b81016020851015613a67578190505b613a7b613a7385613933565b830182613a1a565b50505b505050565b600082821c905092915050565b6000613aa160001984600802613a83565b1980831691505092915050565b6000613aba8383613a90565b9150826002028217905092915050565b613ad382612c35565b67ffffffffffffffff811115613aec57613aeb612e1c565b5b613af68254613881565b613b01828285613a3d565b600060209050601f831160018114613b345760008415613b22578287015190505b613b2c8582613aae565b865550613b94565b601f198416613b428661391e565b60005b82811015613b6a57848901518255600182019150602085019450602081019050613b45565b86831015613b875784890151613b83601f891682613a90565b8355505b6001600288020188555050505b505050505050565b60006040820190508181036000830152613bb68185612c8c565b9050613bc56020830184613207565b9392505050565b6000606082019050613be16000830186612d7c565b613bee6020830185613207565b613bfb6040830184612d7c565b949350505050565b7f52657061697220646f6573206e6f742065786973740000000000000000000000600082015250565b6000613c39601583612c40565b9150613c4482613c03565b602082019050919050565b60006020820190508181036000830152613c6881613c2c565b9050919050565b7f4e487b7100000000000000000000000000000000000000000000000000000000600052603260045260246000fd5b6000602082019050613cb360008301846137a9565b92915050565b7f47617261676520616c7265616479207265676973746572656400000000000000600082015250565b6000613cef601983612c40565b9150613cfa82613cb9565b602082019050919050565b60006020820190508181036000830152613d1e81613ce2565b9050919050565b600081905092915050565b6000613d3b82612c35565b613d458185613d25565b9350613d55818560208601612c51565b80840191505092915050565b6000613d6d8285613d30565b9150613d798284613d30565b91508190509392505050565b600081519050919050565b600082825260208201905092915050565b6000613dac82613d85565b613db68185613d90565b9350613dc6818560208601612c51565b613dcf81612c7b565b840191505092915050565b6000608082019050613def6000830187612d7c565b613dfc6020830186612d7c565b613e096040830185613207565b8181036060830152613e1b8184613da1565b905095945050505050565b600081519050613e3581612ba6565b92915050565b600060208284031215613e5157613e50612b70565b5b6000613e5f84828501613e26565b91505092915050565b7f4e487b7100000000000000000000000000000000000000000000000000000000600052601260045260246000fd5b6000604082019050613eac6000830185612d7c565b613eb960208301846131dd565b9392505050565b6000604082019050613ed56000830185612d7c565b613ee26020830184613207565b939250505056fea2646970667358221220033bfbf032aa939e2bd99725e3b1ef091bd7b718edbf1fd0e9135dcd335bd8d864736f6c63430008180033",
  "linkReferences": {},
  "deployedLinkReferences": {}
}