{
  "_format": "hh-sol-artifact-1",
  "contractName": "Car",
  "sourceName": "contracts/Car.sol",
  "abi": [
    {
      "inputs": [],
      "stateMutability": "nonpayable",
      "type": "constructor"
    },
    {
      "inputs": [],
      "name": "AccessControlBadConfirmation",
      "type": "error"
    },
    {
      "inputs": [
        {
          "internalType": "address",
          "name": "account",
          "type": "address"
        },
        {
          "internalType": "bytes32",
          "name": "neededRole",
          "type": "bytes32"
        }
      ],
      "name": "AccessControlUnauthorizedAccount",
      "type": "error"
    },
    {
      "inputs": [
        {
          "internalType": "address",
          "name": "sender",
          "type": "address"
        },
        {
          "internalType": "uint256",
          "name": "tokenId",
          "type": "uint256"
        },
        {
          "internalType": "address",
          "name": "owner",
          "type": "address"
        }
      ],
      "name": "ERC721IncorrectOwner",
      "type": "error"
    },
    {
      "inputs": [
        {
          "internalType": "address",
          "name": "operator",
          "type": "address"
        },
        {
          "internalType": "uint256",
          "name": "tokenId",
          "type": "uint256"
        }
      ],
      "name": "ERC721InsufficientApproval",
      "type": "error"
    },
    {
      "inputs": [
        {
          "internalType": "address",
          "name": "approver",
          "type": "address"
        }
      ],
      "name": "ERC721InvalidApprover",
      "type": "error"
    },
    {
      "inputs": [
        {
          "internalType": "address",
          "name": "operator",
          "type": "address"
        }
      ],
      "name": "ERC721InvalidOperator",
      "type": "error"
    },
    {
      "inputs": [
        {
          "internalType": "address",
          "name": "owner",
          "type": "address"
        }
      ],
      "name": "ERC721InvalidOwner",
      "type": "error"
    },
    {
      "inputs": [
        {
          "internalType": "address",
          "name": "receiver",
          "type": "address"
        }
      ],
      "name": "ERC721InvalidReceiver",
      "type": "error"
    },
    {
      "inputs": [
        {
          "internalType": "address",
          "name": "sender",
          "type": "address"
        }
      ],
      "name": "ERC721InvalidSender",
      "type": "error"
    },
    {
      "inputs": [
        {
          "internalType": "uint256",
          "name": "tokenId",
          "type": "uint256"
        }
      ],
      "name": "ERC721NonexistentToken",
      "type": "error"
    },
    {
      "anonymous": false,
      "inputs": [
        {
          "indexed": true,
          "internalType": "address",
          "name": "owner",
          "type": "address"
        },
        {
          "indexed": true,
          "internalType": "address",
          "name": "approved",
          "type": "address"
        },
        {
          "indexed": true,
          "internalType": "uint256",
          "name": "tokenId",
          "type": "uint256"
        }
      ],
      "name": "Approval",
      "type": "event"
    },
    {
      "anonymous": false,
      "inputs": [
        {
          "indexed": true,
          "internalType": "address",
          "name": "owner",
          "type": "address"
        },
        {
          "indexed": true,
          "internalType": "address",
          "name": "operator",
          "type": "address"
        },
        {
          "indexed": false,
          "internalType": "bool",
          "name": "approved",
          "type": "bool"
        }
      ],
      "name": "ApprovalForAll",
      "type": "event"
    },
    {
      "anonymous": false,
      "inputs": [
        {
          "indexed": true,
          "internalType": "uint256",
          "name": "tokenId",
          "type": "uint256"
        },
        {
          "indexed": false,
          "internalType": "string",
          "name": "description",
          "type": "string"
        },
        {
          "indexed": false,
          "internalType": "uint256",
          "name": "date",
          "type": "uint256"
        }
      ],
      "name": "RepairAdded",
      "type": "event"
    },
    {
      "anonymous": false,
      "inputs": [
        {
          "indexed": true,
          "internalType": "bytes32",
          "name": "role",
          "type": "bytes32"
        },
        {
          "indexed": true,
          "internalType": "bytes32",
          "name": "previousAdminRole",
          "type": "bytes32"
        },
        {
          "indexed": true,
          "internalType": "bytes32",
          "name": "newAdminRole",
          "type": "bytes32"
        }
      ],
      "name": "RoleAdminChanged",
      "type": "event"
    },
    {
      "anonymous": false,
      "inputs": [
        {
          "indexed": true,
          "internalType": "bytes32",
          "name": "role",
          "type": "bytes32"
        },
        {
          "indexed": true,
          "internalType": "address",
          "name": "account",
          "type": "address"
        },
        {
          "indexed": true,
          "internalType": "address",
          "name": "sender",
          "type": "address"
        }
      ],
      "name": "RoleGranted",
      "type": "event"
    },
    {
      "anonymous": false,
      "inputs": [
        {
          "indexed": true,
          "internalType": "bytes32",
          "name": "role",
          "type": "bytes32"
        },
        {
          "indexed": true,
          "internalType": "address",
          "name": "account",
          "type": "address"
        },
        {
          "indexed": true,
          "internalType": "address",
          "name": "sender",
          "type": "address"
        }
      ],
      "name": "RoleRevoked",
      "type": "event"
    },
    {
      "anonymous": false,
      "inputs": [
        {
          "indexed": true,
          "internalType": "uint256",
          "name": "tokenId",
          "type": "uint256"
        },
        {
          "indexed": false,
          "internalType": "enum Car.VehicleState",
          "name": "newState",
          "type": "uint8"
        }
      ],
      "name": "StateChanged",
      "type": "event"
    },
    {
      "anonymous": false,
      "inputs": [
        {
          "indexed": true,
          "internalType": "uint256",
          "name": "tokenId",
          "type": "uint256"
        },
        {
          "indexed": false,
          "internalType": "bool",
          "name": "isValid",
          "type": "bool"
        },
        {
          "indexed": false,
          "internalType": "uint256",
          "name": "expirationDate",
          "type": "uint256"
        }
      ],
      "name": "TechnicalControlUpdated",
      "type": "event"
    },
    {
      "anonymous": false,
      "inputs": [
        {
          "indexed": true,
          "internalType": "address",
          "name": "from",
          "type": "address"
        },
        {
          "indexed": true,
          "internalType": "address",
          "name": "to",
          "type": "address"
        },
        {
          "indexed": true,
          "internalType": "uint256",
          "name": "tokenId",
          "type": "uint256"
        }
      ],
      "name": "Transfer",
      "type": "event"
    },
    {
      "inputs": [],
      "name": "ADMIN_ROLE",
      "outputs": [
        {
          "internalType": "bytes32",
          "name": "",
          "type": "bytes32"
        }
      ],
      "stateMutability": "view",
      "type": "function"
    },
    {
      "inputs": [],
      "name": "DEFAULT_ADMIN_ROLE",
      "outputs": [
        {
          "internalType": "bytes32",
          "name": "",
          "type": "bytes32"
        }
      ],
      "stateMutability": "view",
      "type": "function"
    },
    {
      "inputs": [],
      "name": "GARAGE_ROLE",
      "outputs": [
        {
          "internalType": "bytes32",
          "name": "",
          "type": "bytes32"
        }
      ],
      "stateMutability": "view",
      "type": "function"
    },
    {
      "inputs": [
        {
          "internalType": "uint256",
          "name": "tokenId",
          "type": "uint256"
        },
        {
          "internalType": "string",
          "name": "description",
          "type": "string"
        },
        {
          "components": [
            {
              "internalType": "string",
              "name": "name",
              "type": "string"
            },
            {
              "internalType": "string",
              "name": "location",
              "type": "string"
            },
            {
              "internalType": "string",
              "name": "phoneNumber",
              "type": "string"
            }
          ],
          "internalType": "struct Car.Garage",
          "name": "garage",
          "type": "tuple"
        }
      ],
      "name": "addRepair",
      "outputs": [],
      "stateMutability": "nonpayable",
      "type": "function"
    },
    {
      "inputs": [
        {
          "internalType": "address",
          "name": "to",
          "type": "address"
        },
        {
          "internalType": "uint256",
          "name": "tokenId",
          "type": "uint256"
        }
      ],
      "name": "approve",
      "outputs": [],
      "stateMutability": "nonpayable",
      "type": "function"
    },
    {
      "inputs": [
        {
          "internalType": "address",
          "name": "owner",
          "type": "address"
        }
      ],
      "name": "balanceOf",
      "outputs": [
        {
          "internalType": "uint256",
          "name": "",
          "type": "uint256"
        }
      ],
      "stateMutability": "view",
      "type": "function"
    },
    {
      "inputs": [
        {
          "internalType": "uint256",
          "name": "tokenId",
          "type": "uint256"
        },
        {
          "internalType": "enum Car.VehicleState",
          "name": "state",
          "type": "uint8"
        }
      ],
      "name": "changeState",
      "outputs": [],
      "stateMutability": "nonpayable",
      "type": "function"
    },
    {
      "inputs": [
        {
          "internalType": "uint256",
          "name": "tokenId",
          "type": "uint256"
        }
      ],
      "name": "getApproved",
      "outputs": [
        {
          "internalType": "address",
          "name": "",
          "type": "address"
        }
      ],
      "stateMutability": "view",
      "type": "function"
    },
    {
      "inputs": [
        {
          "internalType": "uint256",
          "name": "tokenId",
          "type": "uint256"
        }
      ],
      "name": "getRepairCount",
      "outputs": [
        {
          "internalType": "uint256",
          "name": "",
          "type": "uint256"
        }
      ],
      "stateMutability": "view",
      "type": "function"
    },
    {
      "inputs": [
        {
          "internalType": "uint256",
          "name": "tokenId",
          "type": "uint256"
        },
        {
          "internalType": "uint256",
          "name": "index",
          "type": "uint256"
        }
      ],
      "name": "getRepairDetails",
      "outputs": [
        {
          "internalType": "string",
          "name": "description",
          "type": "string"
        },
        {
          "internalType": "string",
          "name": "garageName",
          "type": "string"
        },
        {
          "internalType": "string",
          "name": "garageLocation",
          "type": "string"
        },
        {
          "internalType": "string",
          "name": "garagePhone",
          "type": "string"
        },
        {
          "internalType": "uint256",
          "name": "date",
          "type": "uint256"
        }
      ],
      "stateMutability": "view",
      "type": "function"
    },
    {
      "inputs": [
        {
          "internalType": "bytes32",
          "name": "role",
          "type": "bytes32"
        }
      ],
      "name": "getRoleAdmin",
      "outputs": [
        {
          "internalType": "bytes32",
          "name": "",
          "type": "bytes32"
        }
      ],
      "stateMutability": "view",
      "type": "function"
    },
    {
      "inputs": [
        {
          "internalType": "uint256",
          "name": "tokenId",
          "type": "uint256"
        }
      ],
      "name": "getTechnicalControl",
      "outputs": [
        {
          "internalType": "bool",
          "name": "isValid",
          "type": "bool"
        },
        {
          "internalType": "uint256",
          "name": "expirationDate",
          "type": "uint256"
        }
      ],
      "stateMutability": "view",
      "type": "function"
    },
    {
      "inputs": [
        {
          "internalType": "uint256",
          "name": "tokenId",
          "type": "uint256"
        }
      ],
      "name": "getVehicleInformations",
      "outputs": [
        {
          "internalType": "string",
          "name": "brand",
          "type": "string"
        },
        {
          "internalType": "string",
          "name": "chassisNumber",
          "type": "string"
        },
        {
          "internalType": "string",
          "name": "registrationCertificate",
          "type": "string"
        },
        {
          "internalType": "enum Car.VehicleState",
          "name": "state",
          "type": "uint8"
        }
      ],
      "stateMutability": "view",
      "type": "function"
    },
    {
      "inputs": [
        {
          "internalType": "bytes32",
          "name": "role",
          "type": "bytes32"
        },
        {
          "internalType": "address",
          "name": "account",
          "type": "address"
        }
      ],
      "name": "grantRole",
      "outputs": [],
      "stateMutability": "nonpayable",
      "type": "function"
    },
    {
      "inputs": [
        {
          "internalType": "bytes32",
          "name": "role",
          "type": "bytes32"
        },
        {
          "internalType": "address",
          "name": "account",
          "type": "address"
        }
      ],
      "name": "hasRole",
      "outputs": [
        {
          "internalType": "bool",
          "name": "",
          "type": "bool"
        }
      ],
      "stateMutability": "view",
      "type": "function"
    },
    {
      "inputs": [
        {
          "internalType": "address",
          "name": "owner",
          "type": "address"
        },
        {
          "internalType": "address",
          "name": "operator",
          "type": "address"
        }
      ],
      "name": "isApprovedForAll",
      "outputs": [
        {
          "internalType": "bool",
          "name": "",
          "type": "bool"
        }
      ],
      "stateMutability": "view",
      "type": "function"
    },
    {
      "inputs": [
        {
          "internalType": "address",
          "name": "to",
          "type": "address"
        },
        {
          "internalType": "uint256",
          "name": "tokenId",
          "type": "uint256"
        },
        {
          "internalType": "string",
          "name": "brand",
          "type": "string"
        },
        {
          "internalType": "string",
          "name": "chassisNumber",
          "type": "string"
        },
        {
          "internalType": "string",
          "name": "registrationCertificate",
          "type": "string"
        },
        {
          "internalType": "enum Car.VehicleState",
          "name": "state",
          "type": "uint8"
        },
        {
          "components": [
            {
              "internalType": "bool",
              "name": "isValid",
              "type": "bool"
            },
            {
              "internalType": "uint256",
              "name": "expirationDate",
              "type": "uint256"
            }
          ],
          "internalType": "struct Car.TechnicalControl",
          "name": "technicalControl",
          "type": "tuple"
        }
      ],
      "name": "mintVehicle",
      "outputs": [],
      "stateMutability": "nonpayable",
      "type": "function"
    },
    {
      "inputs": [],
      "name": "name",
      "outputs": [
        {
          "internalType": "string",
          "name": "",
          "type": "string"
        }
      ],
      "stateMutability": "view",
      "type": "function"
    },
    {
      "inputs": [
        {
          "internalType": "uint256",
          "name": "tokenId",
          "type": "uint256"
        }
      ],
      "name": "ownerOf",
      "outputs": [
        {
          "internalType": "address",
          "name": "",
          "type": "address"
        }
      ],
      "stateMutability": "view",
      "type": "function"
    },
    {
      "inputs": [
        {
          "internalType": "bytes32",
          "name": "role",
          "type": "bytes32"
        },
        {
          "internalType": "address",
          "name": "callerConfirmation",
          "type": "address"
        }
      ],
      "name": "renounceRole",
      "outputs": [],
      "stateMutability": "nonpayable",
      "type": "function"
    },
    {
      "inputs": [
        {
          "internalType": "bytes32",
          "name": "role",
          "type": "bytes32"
        },
        {
          "internalType": "address",
          "name": "account",
          "type": "address"
        }
      ],
      "name": "revokeRole",
      "outputs": [],
      "stateMutability": "nonpayable",
      "type": "function"
    },
    {
      "inputs": [
        {
          "internalType": "address",
          "name": "from",
          "type": "address"
        },
        {
          "internalType": "address",
          "name": "to",
          "type": "address"
        },
        {
          "internalType": "uint256",
          "name": "tokenId",
          "type": "uint256"
        }
      ],
      "name": "safeTransferFrom",
      "outputs": [],
      "stateMutability": "nonpayable",
      "type": "function"
    },
    {
      "inputs": [
        {
          "internalType": "address",
          "name": "from",
          "type": "address"
        },
        {
          "internalType": "address",
          "name": "to",
          "type": "address"
        },
        {
          "internalType": "uint256",
          "name": "tokenId",
          "type": "uint256"
        },
        {
          "internalType": "bytes",
          "name": "data",
          "type": "bytes"
        }
      ],
      "name": "safeTransferFrom",
      "outputs": [],
      "stateMutability": "nonpayable",
      "type": "function"
    },
    {
      "inputs": [
        {
          "internalType": "address",
          "name": "operator",
          "type": "address"
        },
        {
          "internalType": "bool",
          "name": "approved",
          "type": "bool"
        }
      ],
      "name": "setApprovalForAll",
      "outputs": [],
      "stateMutability": "nonpayable",
      "type": "function"
    },
    {
      "inputs": [
        {
          "internalType": "bytes4",
          "name": "interfaceId",
          "type": "bytes4"
        }
      ],
      "name": "supportsInterface",
      "outputs": [
        {
          "internalType": "bool",
          "name": "",
          "type": "bool"
        }
      ],
      "stateMutability": "view",
      "type": "function"
    },
    {
      "inputs": [],
      "name": "symbol",
      "outputs": [
        {
          "internalType": "string",
          "name": "",
          "type": "string"
        }
      ],
      "stateMutability": "view",
      "type": "function"
    },
    {
      "inputs": [
        {
          "internalType": "uint256",
          "name": "tokenId",
          "type": "uint256"
        }
      ],
      "name": "tokenURI",
      "outputs": [
        {
          "internalType": "string",
          "name": "",
          "type": "string"
        }
      ],
      "stateMutability": "view",
      "type": "function"
    },
    {
      "inputs": [
        {
          "internalType": "address",
          "name": "from",
          "type": "address"
        },
        {
          "internalType": "address",
          "name": "to",
          "type": "address"
        },
        {
          "internalType": "uint256",
          "name": "tokenId",
          "type": "uint256"
        }
      ],
      "name": "transferFrom",
      "outputs": [],
      "stateMutability": "nonpayable",
      "type": "function"
    },
    {
      "inputs": [
        {
          "internalType": "uint256",
          "name": "tokenId",
          "type": "uint256"
        },
        {
          "internalType": "bool",
          "name": "isValid",
          "type": "bool"
        },
        {
          "internalType": "uint256",
          "name": "expirationDate",
          "type": "uint256"
        }
      ],
      "name": "updateTechnicalControl",
      "outputs": [],
      "stateMutability": "nonpayable",
      "type": "function"
    }
  ],
  "bytecode": "0x60806040523480156200001157600080fd5b506040518060400160405280600381526020017f43617200000000000000000000000000000000000000000000000000000000008152506040518060400160405280600381526020017f434152000000000000000000000000000000000000000000000000000000000081525081600090816200008f9190620004e4565b508060019081620000a19190620004e4565b505050620000b96000801b33620000f360201b60201c565b50620000ec7ff9d6c25e75c69e9d55faaaafdda02ff242e444fc05c67ba39c9e7e9f21bfacbb33620000f360201b60201c565b50620005cb565b6000620001078383620001f760201b60201c565b620001ec5760016006600085815260200190815260200160002060000160008473ffffffffffffffffffffffffffffffffffffffff1673ffffffffffffffffffffffffffffffffffffffff16815260200190815260200160002060006101000a81548160ff021916908315150217905550620001886200026260201b60201c565b73ffffffffffffffffffffffffffffffffffffffff168273ffffffffffffffffffffffffffffffffffffffff16847f2f8788117e7eff1d82e926ec794901d17c78024a50270940304540a733656f0d60405160405180910390a460019050620001f1565b600090505b92915050565b60006006600084815260200190815260200160002060000160008373ffffffffffffffffffffffffffffffffffffffff1673ffffffffffffffffffffffffffffffffffffffff16815260200190815260200160002060009054906101000a900460ff16905092915050565b600033905090565b600081519050919050565b7f4e487b7100000000000000000000000000000000000000000000000000000000600052604160045260246000fd5b7f4e487b7100000000000000000000000000000000000000000000000000000000600052602260045260246000fd5b60006002820490506001821680620002ec57607f821691505b602082108103620003025762000301620002a4565b5b50919050565b60008190508160005260206000209050919050565b60006020601f8301049050919050565b600082821b905092915050565b6000600883026200036c7fffffffffffffffffffffffffffffffffffffffffffffffffffffffffffffffff826200032d565b6200037886836200032d565b95508019841693508086168417925050509392505050565b6000819050919050565b6000819050919050565b6000620003c5620003bf620003b98462000390565b6200039a565b62000390565b9050919050565b6000819050919050565b620003e183620003a4565b620003f9620003f082620003cc565b8484546200033a565b825550505050565b600090565b6200041062000401565b6200041d818484620003d6565b505050565b5b8181101562000445576200043960008262000406565b60018101905062000423565b5050565b601f82111562000494576200045e8162000308565b62000469846200031d565b8101602085101562000479578190505b6200049162000488856200031d565b83018262000422565b50505b505050565b600082821c905092915050565b6000620004b96000198460080262000499565b1980831691505092915050565b6000620004d48383620004a6565b9150826002028217905092915050565b620004ef826200026a565b67ffffffffffffffff8111156200050b576200050a62000275565b5b620005178254620002d3565b6200052482828562000449565b600060209050601f8311600181146200055c576000841562000547578287015190505b620005538582620004c6565b865550620005c3565b601f1984166200056c8662000308565b60005b8281101562000596578489015182556001820191506020850194506020810190506200056f565b86831015620005b65784890151620005b2601f891682620004a6565b8355505b6001600288020188555050505b505050505050565b613b9b80620005db6000396000f3fe608060405234801561001057600080fd5b50600436106101cf5760003560e01c80636bb921ea1161010457806395d89b41116100a2578063c4022a8f11610071578063c4022a8f14610553578063c87b56dd14610586578063d547741f146105b6578063e985e9c5146105d2576101cf565b806395d89b41146104df578063a217fddf146104fd578063a22cb4651461051b578063b88d4fde14610537576101cf565b80636ffec769116100de5780636ffec7691461044557806370a082311461046157806375b238fc1461049157806391d14854146104af576101cf565b80636bb921ea146103d75780636e6306491461040b5780636fd1c47414610427576101cf565b80632891a6b21161017157806342842e0e1161014b57806342842e0e1461033f57806344c67d841461035b5780636352211e146103775780636abf76ad146103a7576101cf565b80632891a6b2146102d65780632f2ff15d1461030757806336568abe14610323576101cf565b8063095ea7b3116101ad578063095ea7b3146102525780630a5192d51461026e57806323b872dd1461028a578063248a9ca3146102a6576101cf565b806301ffc9a7146101d457806306fdde0314610204578063081812fc14610222575b600080fd5b6101ee60048036038101906101e99190612989565b610602565b6040516101fb91906129d1565b60405180910390f35b61020c610614565b6040516102199190612a7c565b60405180910390f35b61023c60048036038101906102379190612ad4565b6106a6565b6040516102499190612b42565b60405180910390f35b61026c60048036038101906102679190612b89565b6106c2565b005b61028860048036038101906102839190612bf5565b6106d8565b005b6102a4600480360381019061029f9190612c48565b610813565b005b6102c060048036038101906102bb9190612cd1565b610915565b6040516102cd9190612d0d565b60405180910390f35b6102f060048036038101906102eb9190612ad4565b610935565b6040516102fe929190612d37565b60405180910390f35b610321600480360381019061031c9190612d60565b6109ea565b005b61033d60048036038101906103389190612d60565b610a0c565b005b61035960048036038101906103549190612c48565b610a87565b005b61037560048036038101906103709190612f54565b610aa7565b005b610391600480360381019061038c9190612ad4565b610b74565b60405161039e9190612b42565b60405180910390f35b6103c160048036038101906103bc9190612ad4565b610b86565b6040516103ce919061304b565b60405180910390f35b6103f160048036038101906103ec9190613066565b610c1f565b6040516104029594939291906130a6565b60405180910390f35b61042560048036038101906104209190613115565b610f95565b005b61042f6110b1565b60405161043c9190612d0d565b60405180910390f35b61045f600480360381019061045a919061320d565b6110d5565b005b61047b60048036038101906104769190613298565b61127f565b604051610488919061304b565b60405180910390f35b610499611339565b6040516104a69190612d0d565b60405180910390f35b6104c960048036038101906104c49190612d60565b611340565b6040516104d691906129d1565b60405180910390f35b6104e76113ab565b6040516104f49190612a7c565b60405180910390f35b61050561143d565b6040516105129190612d0d565b60405180910390f35b610535600480360381019061053091906132c5565b611444565b005b610551600480360381019061054c91906133a6565b61145a565b005b61056d60048036038101906105689190612ad4565b611477565b60405161057d94939291906134a0565b60405180910390f35b6105a0600480360381019061059b9190612ad4565b6116dd565b6040516105ad9190612a7c565b60405180910390f35b6105d060048036038101906105cb9190612d60565b611746565b005b6105ec60048036038101906105e791906134fa565b611768565b6040516105f991906129d1565b60405180910390f35b600061060d826117fc565b9050919050565b60606000805461062390613569565b80601f016020809104026020016040519081016040528092919081815260200182805461064f90613569565b801561069c5780601f106106715761010080835404028352916020019161069c565b820191906000526020600020905b81548152906001019060200180831161067f57829003601f168201915b5050505050905090565b60006106b182611876565b506106bb826118fe565b9050919050565b6106d482826106cf61193b565b611943565b5050565b7ff9d6c25e75c69e9d55faaaafdda02ff242e444fc05c67ba39c9e7e9f21bfacbb61070281611955565b600073ffffffffffffffffffffffffffffffffffffffff1661072385610b74565b73ffffffffffffffffffffffffffffffffffffffff1603610779576040517f08c379a0000000000000000000000000000000000000000000000000000000008152600401610770906135e6565b60405180910390fd5b60405180604001604052808415158152602001838152506007600086815260200190815260200160002060050160008201518160000160006101000a81548160ff02191690831515021790555060208201518160010155905050837f8d62eac463b15fd21f46ba7e24f246d15d54ce88d4c94df1f280b87fcb04e8148484604051610805929190612d37565b60405180910390a250505050565b600073ffffffffffffffffffffffffffffffffffffffff168273ffffffffffffffffffffffffffffffffffffffff16036108855760006040517f64a0ae9200000000000000000000000000000000000000000000000000000000815260040161087c9190612b42565b60405180910390fd5b6000610899838361089461193b565b611969565b90508373ffffffffffffffffffffffffffffffffffffffff168173ffffffffffffffffffffffffffffffffffffffff161461090f578382826040517f64283d7b00000000000000000000000000000000000000000000000000000000815260040161090693929190613606565b60405180910390fd5b50505050565b600060066000838152602001908152602001600020600101549050919050565b600080600073ffffffffffffffffffffffffffffffffffffffff1661095984610b74565b73ffffffffffffffffffffffffffffffffffffffff16036109af576040517f08c379a00000000000000000000000000000000000000000000000000000000081526004016109a6906135e6565b60405180910390fd5b60006007600085815260200190815260200160002060050190508060000160009054906101000a900460ff1681600101549250925050915091565b6109f382610915565b6109fc81611955565b610a068383611b83565b50505050565b610a1461193b565b73ffffffffffffffffffffffffffffffffffffffff168173ffffffffffffffffffffffffffffffffffffffff1614610a78576040517f6697b23200000000000000000000000000000000000000000000000000000000815260040160405180910390fd5b610a828282611c75565b505050565b610aa28383836040518060200160405280600081525061145a565b505050565b6000801b610ab481611955565b610abe8888611d68565b600060076000898152602001908152602001600020905086816000019081610ae691906137e9565b5085816001019081610af891906137e9565b5084816002019081610b0a91906137e9565b50838160040160006101000a81548160ff02191690836002811115610b3257610b31613429565b5b0217905550828160050160008201518160000160006101000a81548160ff02191690831515021790555060208201518160010155905050505050505050505050565b6000610b7f82611876565b9050919050565b60008073ffffffffffffffffffffffffffffffffffffffff16610ba883610b74565b73ffffffffffffffffffffffffffffffffffffffff1603610bfe576040517f08c379a0000000000000000000000000000000000000000000000000000000008152600401610bf5906135e6565b60405180910390fd5b60076000838152602001908152602001600020600301805490509050919050565b60608060608060008073ffffffffffffffffffffffffffffffffffffffff16610c4788610b74565b73ffffffffffffffffffffffffffffffffffffffff1603610c9d576040517f08c379a0000000000000000000000000000000000000000000000000000000008152600401610c94906135e6565b60405180910390fd5b60076000888152602001908152602001600020600301805490508610610cf8576040517f08c379a0000000000000000000000000000000000000000000000000000000008152600401610cef90613907565b60405180910390fd5b6000600760008981526020019081526020016000206003018781548110610d2257610d21613927565b5b90600052602060002090600502019050806000018160010160000182600101600101836001016002018460040154848054610d5c90613569565b80601f0160208091040260200160405190810160405280929190818152602001828054610d8890613569565b8015610dd55780601f10610daa57610100808354040283529160200191610dd5565b820191906000526020600020905b815481529060010190602001808311610db857829003601f168201915b50505050509450838054610de890613569565b80601f0160208091040260200160405190810160405280929190818152602001828054610e1490613569565b8015610e615780601f10610e3657610100808354040283529160200191610e61565b820191906000526020600020905b815481529060010190602001808311610e4457829003601f168201915b50505050509350828054610e7490613569565b80601f0160208091040260200160405190810160405280929190818152602001828054610ea090613569565b8015610eed5780601f10610ec257610100808354040283529160200191610eed565b820191906000526020600020905b815481529060010190602001808311610ed057829003601f168201915b50505050509250818054610f0090613569565b80601f0160208091040260200160405190810160405280929190818152602001828054610f2c90613569565b8015610f795780601f10610f4e57610100808354040283529160200191610f79565b820191906000526020600020905b815481529060010190602001808311610f5c57829003601f168201915b5050505050915095509550955095509550509295509295909350565b7ff9d6c25e75c69e9d55faaaafdda02ff242e444fc05c67ba39c9e7e9f21bfacbb610fbf81611955565b600073ffffffffffffffffffffffffffffffffffffffff16610fe084610b74565b73ffffffffffffffffffffffffffffffffffffffff1603611036576040517f08c379a000000000000000000000000000000000000000000000000000000000815260040161102d906135e6565b60405180910390fd5b816007600085815260200190815260200160002060040160006101000a81548160ff0219169083600281111561106f5761106e613429565b5b0217905550827ffafe884515ca1fa5e0bf815ce87ef00b2cdaa0eee590d20376604937937a10bf836040516110a49190613956565b60405180910390a2505050565b7ff9d6c25e75c69e9d55faaaafdda02ff242e444fc05c67ba39c9e7e9f21bfacbb81565b7ff9d6c25e75c69e9d55faaaafdda02ff242e444fc05c67ba39c9e7e9f21bfacbb6110ff81611955565b600073ffffffffffffffffffffffffffffffffffffffff1661112085610b74565b73ffffffffffffffffffffffffffffffffffffffff1603611176576040517f08c379a000000000000000000000000000000000000000000000000000000000815260040161116d906135e6565b60405180910390fd5b60076000858152602001908152602001600020600301604051806060016040528085815260200184815260200142815250908060018154018082558091505060019003906000526020600020906005020160009091909190915060008201518160000190816111e591906137e9565b50602082015181600101600082015181600001908161120491906137e9565b50602082015181600101908161121a91906137e9565b50604082015181600201908161123091906137e9565b505050604082015181600401555050837f9274dcd803b1aea16796019f9deddf59d35567e98d3dd152f54e53c5e141254b8442604051611271929190613971565b60405180910390a250505050565b60008073ffffffffffffffffffffffffffffffffffffffff168273ffffffffffffffffffffffffffffffffffffffff16036112f25760006040517f89c62b640000000000000000000000000000000000000000000000000000000081526004016112e99190612b42565b60405180910390fd5b600360008373ffffffffffffffffffffffffffffffffffffffff1673ffffffffffffffffffffffffffffffffffffffff168152602001908152602001600020549050919050565b6000801b81565b60006006600084815260200190815260200160002060000160008373ffffffffffffffffffffffffffffffffffffffff1673ffffffffffffffffffffffffffffffffffffffff16815260200190815260200160002060009054906101000a900460ff16905092915050565b6060600180546113ba90613569565b80601f01602080910402602001604051908101604052809291908181526020018280546113e690613569565b80156114335780601f1061140857610100808354040283529160200191611433565b820191906000526020600020905b81548152906001019060200180831161141657829003601f168201915b5050505050905090565b6000801b81565b61145661144f61193b565b8383611d86565b5050565b611465848484610813565b61147184848484611ef5565b50505050565b606080606060008073ffffffffffffffffffffffffffffffffffffffff1661149e86610b74565b73ffffffffffffffffffffffffffffffffffffffff16036114f4576040517f08c379a00000000000000000000000000000000000000000000000000000000081526004016114eb906135e6565b60405180910390fd5b60006007600087815260200190815260200160002090508060000181600101826002018360040160009054906101000a900460ff1683805461153590613569565b80601f016020809104026020016040519081016040528092919081815260200182805461156190613569565b80156115ae5780601f10611583576101008083540402835291602001916115ae565b820191906000526020600020905b81548152906001019060200180831161159157829003601f168201915b505050505093508280546115c190613569565b80601f01602080910402602001604051908101604052809291908181526020018280546115ed90613569565b801561163a5780601f1061160f5761010080835404028352916020019161163a565b820191906000526020600020905b81548152906001019060200180831161161d57829003601f168201915b5050505050925081805461164d90613569565b80601f016020809104026020016040519081016040528092919081815260200182805461167990613569565b80156116c65780601f1061169b576101008083540402835291602001916116c6565b820191906000526020600020905b8154815290600101906020018083116116a957829003601f168201915b505050505091509450945094509450509193509193565b60606116e882611876565b5060006116f36120ac565b90506000815111611713576040518060200160405280600081525061173e565b8061171d846120c3565b60405160200161172e9291906139dd565b6040516020818303038152906040525b915050919050565b61174f82610915565b61175881611955565b6117628383611c75565b50505050565b6000600560008473ffffffffffffffffffffffffffffffffffffffff1673ffffffffffffffffffffffffffffffffffffffff16815260200190815260200160002060008373ffffffffffffffffffffffffffffffffffffffff1673ffffffffffffffffffffffffffffffffffffffff16815260200190815260200160002060009054906101000a900460ff16905092915050565b60007f7965db0b000000000000000000000000000000000000000000000000000000007bffffffffffffffffffffffffffffffffffffffffffffffffffffffff1916827bffffffffffffffffffffffffffffffffffffffffffffffffffffffff1916148061186f575061186e82612191565b5b9050919050565b60008061188283612273565b9050600073ffffffffffffffffffffffffffffffffffffffff168173ffffffffffffffffffffffffffffffffffffffff16036118f557826040517f7e2732890000000000000000000000000000000000000000000000000000000081526004016118ec919061304b565b60405180910390fd5b80915050919050565b60006004600083815260200190815260200160002060009054906101000a900473ffffffffffffffffffffffffffffffffffffffff169050919050565b600033905090565b61195083838360016122b0565b505050565b6119668161196161193b565b612475565b50565b60008061197584612273565b9050600073ffffffffffffffffffffffffffffffffffffffff168373ffffffffffffffffffffffffffffffffffffffff16146119b7576119b68184866124c6565b5b600073ffffffffffffffffffffffffffffffffffffffff168173ffffffffffffffffffffffffffffffffffffffff1614611a48576119f96000856000806122b0565b6001600360008373ffffffffffffffffffffffffffffffffffffffff1673ffffffffffffffffffffffffffffffffffffffff168152602001908152602001600020600082825403925050819055505b600073ffffffffffffffffffffffffffffffffffffffff168573ffffffffffffffffffffffffffffffffffffffff1614611acb576001600360008773ffffffffffffffffffffffffffffffffffffffff1673ffffffffffffffffffffffffffffffffffffffff168152602001908152602001600020600082825401925050819055505b846002600086815260200190815260200160002060006101000a81548173ffffffffffffffffffffffffffffffffffffffff021916908373ffffffffffffffffffffffffffffffffffffffff160217905550838573ffffffffffffffffffffffffffffffffffffffff168273ffffffffffffffffffffffffffffffffffffffff167fddf252ad1be2c89b69c2b068fc378daa952ba7f163c4a11628f55a4df523b3ef60405160405180910390a4809150509392505050565b6000611b8f8383611340565b611c6a5760016006600085815260200190815260200160002060000160008473ffffffffffffffffffffffffffffffffffffffff1673ffffffffffffffffffffffffffffffffffffffff16815260200190815260200160002060006101000a81548160ff021916908315150217905550611c0761193b565b73ffffffffffffffffffffffffffffffffffffffff168273ffffffffffffffffffffffffffffffffffffffff16847f2f8788117e7eff1d82e926ec794901d17c78024a50270940304540a733656f0d60405160405180910390a460019050611c6f565b600090505b92915050565b6000611c818383611340565b15611d5d5760006006600085815260200190815260200160002060000160008473ffffffffffffffffffffffffffffffffffffffff1673ffffffffffffffffffffffffffffffffffffffff16815260200190815260200160002060006101000a81548160ff021916908315150217905550611cfa61193b565b73ffffffffffffffffffffffffffffffffffffffff168273ffffffffffffffffffffffffffffffffffffffff16847ff6391f5c32d9c69d2a47ea670b442974b53935d1edc7fd64eb21e047a839171b60405160405180910390a460019050611d62565b600090505b92915050565b611d8282826040518060200160405280600081525061258a565b5050565b600073ffffffffffffffffffffffffffffffffffffffff168273ffffffffffffffffffffffffffffffffffffffff1603611df757816040517f5b08ba18000000000000000000000000000000000000000000000000000000008152600401611dee9190612b42565b60405180910390fd5b80600560008573ffffffffffffffffffffffffffffffffffffffff1673ffffffffffffffffffffffffffffffffffffffff16815260200190815260200160002060008473ffffffffffffffffffffffffffffffffffffffff1673ffffffffffffffffffffffffffffffffffffffff16815260200190815260200160002060006101000a81548160ff0219169083151502179055508173ffffffffffffffffffffffffffffffffffffffff168373ffffffffffffffffffffffffffffffffffffffff167f17307eab39ab6107e8899845ad3d59bd9653f200f220920489ca2b5937696c3183604051611ee891906129d1565b60405180910390a3505050565b60008373ffffffffffffffffffffffffffffffffffffffff163b11156120a6578273ffffffffffffffffffffffffffffffffffffffff1663150b7a02611f3961193b565b8685856040518563ffffffff1660e01b8152600401611f5b9493929190613a56565b6020604051808303816000875af1925050508015611f9757506040513d601f19601f82011682018060405250810190611f949190613ab7565b60015b61201b573d8060008114611fc7576040519150601f19603f3d011682016040523d82523d6000602084013e611fcc565b606091505b50600081510361201357836040517f64a0ae9200000000000000000000000000000000000000000000000000000000815260040161200a9190612b42565b60405180910390fd5b805181602001fd5b63150b7a0260e01b7bffffffffffffffffffffffffffffffffffffffffffffffffffffffff1916817bffffffffffffffffffffffffffffffffffffffffffffffffffffffff1916146120a457836040517f64a0ae9200000000000000000000000000000000000000000000000000000000815260040161209b9190612b42565b60405180910390fd5b505b50505050565b606060405180602001604052806000815250905090565b6060600060016120d2846125a6565b01905060008167ffffffffffffffff8111156120f1576120f0612daa565b5b6040519080825280601f01601f1916602001820160405280156121235781602001600182028036833780820191505090505b509050600082602001820190505b600115612186578080600190039150507f3031323334353637383961626364656600000000000000000000000000000000600a86061a8153600a858161217a57612179613ae4565b5b04945060008503612131575b819350505050919050565b60007f80ac58cd000000000000000000000000000000000000000000000000000000007bffffffffffffffffffffffffffffffffffffffffffffffffffffffff1916827bffffffffffffffffffffffffffffffffffffffffffffffffffffffff1916148061225c57507f5b5e139f000000000000000000000000000000000000000000000000000000007bffffffffffffffffffffffffffffffffffffffffffffffffffffffff1916827bffffffffffffffffffffffffffffffffffffffffffffffffffffffff1916145b8061226c575061226b826126f9565b5b9050919050565b60006002600083815260200190815260200160002060009054906101000a900473ffffffffffffffffffffffffffffffffffffffff169050919050565b80806122e95750600073ffffffffffffffffffffffffffffffffffffffff168273ffffffffffffffffffffffffffffffffffffffff1614155b1561241d5760006122f984611876565b9050600073ffffffffffffffffffffffffffffffffffffffff168373ffffffffffffffffffffffffffffffffffffffff161415801561236457508273ffffffffffffffffffffffffffffffffffffffff168173ffffffffffffffffffffffffffffffffffffffff1614155b801561237757506123758184611768565b155b156123b957826040517fa9fbf51f0000000000000000000000000000000000000000000000000000000081526004016123b09190612b42565b60405180910390fd5b811561241b57838573ffffffffffffffffffffffffffffffffffffffff168273ffffffffffffffffffffffffffffffffffffffff167f8c5be1e5ebec7d5bd14f71427d1e84f3dd0314c0f7b2291e5b200ac8c7c3b92560405160405180910390a45b505b836004600085815260200190815260200160002060006101000a81548173ffffffffffffffffffffffffffffffffffffffff021916908373ffffffffffffffffffffffffffffffffffffffff16021790555050505050565b61247f8282611340565b6124c25780826040517fe2517d3f0000000000000000000000000000000000000000000000000000000081526004016124b9929190613b13565b60405180910390fd5b5050565b6124d1838383612763565b61258557600073ffffffffffffffffffffffffffffffffffffffff168373ffffffffffffffffffffffffffffffffffffffff160361254657806040517f7e27328900000000000000000000000000000000000000000000000000000000815260040161253d919061304b565b60405180910390fd5b81816040517f177e802f00000000000000000000000000000000000000000000000000000000815260040161257c929190613b3c565b60405180910390fd5b505050565b6125948383612824565b6125a16000848484611ef5565b505050565b600080600090507a184f03e93ff9f4daa797ed6e38ed64bf6a1f0100000000000000008310612604577a184f03e93ff9f4daa797ed6e38ed64bf6a1f01000000000000000083816125fa576125f9613ae4565b5b0492506040810190505b6d04ee2d6d415b85acef81000000008310612641576d04ee2d6d415b85acef8100000000838161263757612636613ae4565b5b0492506020810190505b662386f26fc10000831061267057662386f26fc10000838161266657612665613ae4565b5b0492506010810190505b6305f5e1008310612699576305f5e100838161268f5761268e613ae4565b5b0492506008810190505b61271083106126be5761271083816126b4576126b3613ae4565b5b0492506004810190505b606483106126e157606483816126d7576126d6613ae4565b5b0492506002810190505b600a83106126f0576001810190505b80915050919050565b60007f01ffc9a7000000000000000000000000000000000000000000000000000000007bffffffffffffffffffffffffffffffffffffffffffffffffffffffff1916827bffffffffffffffffffffffffffffffffffffffffffffffffffffffff1916149050919050565b60008073ffffffffffffffffffffffffffffffffffffffff168373ffffffffffffffffffffffffffffffffffffffff161415801561281b57508273ffffffffffffffffffffffffffffffffffffffff168473ffffffffffffffffffffffffffffffffffffffff1614806127dc57506127db8484611768565b5b8061281a57508273ffffffffffffffffffffffffffffffffffffffff16612802836118fe565b73ffffffffffffffffffffffffffffffffffffffff16145b5b90509392505050565b600073ffffffffffffffffffffffffffffffffffffffff168273ffffffffffffffffffffffffffffffffffffffff16036128965760006040517f64a0ae9200000000000000000000000000000000000000000000000000000000815260040161288d9190612b42565b60405180910390fd5b60006128a483836000611969565b9050600073ffffffffffffffffffffffffffffffffffffffff168173ffffffffffffffffffffffffffffffffffffffff16146129185760006040517f73c6ac6e00000000000000000000000000000000000000000000000000000000815260040161290f9190612b42565b60405180910390fd5b505050565b6000604051905090565b600080fd5b600080fd5b60007fffffffff0000000000000000000000000000000000000000000000000000000082169050919050565b61296681612931565b811461297157600080fd5b50565b6000813590506129838161295d565b92915050565b60006020828403121561299f5761299e612927565b5b60006129ad84828501612974565b91505092915050565b60008115159050919050565b6129cb816129b6565b82525050565b60006020820190506129e660008301846129c2565b92915050565b600081519050919050565b600082825260208201905092915050565b60005b83811015612a26578082015181840152602081019050612a0b565b60008484015250505050565b6000601f19601f8301169050919050565b6000612a4e826129ec565b612a5881856129f7565b9350612a68818560208601612a08565b612a7181612a32565b840191505092915050565b60006020820190508181036000830152612a968184612a43565b905092915050565b6000819050919050565b612ab181612a9e565b8114612abc57600080fd5b50565b600081359050612ace81612aa8565b92915050565b600060208284031215612aea57612ae9612927565b5b6000612af884828501612abf565b91505092915050565b600073ffffffffffffffffffffffffffffffffffffffff82169050919050565b6000612b2c82612b01565b9050919050565b612b3c81612b21565b82525050565b6000602082019050612b576000830184612b33565b92915050565b612b6681612b21565b8114612b7157600080fd5b50565b600081359050612b8381612b5d565b92915050565b60008060408385031215612ba057612b9f612927565b5b6000612bae85828601612b74565b9250506020612bbf85828601612abf565b9150509250929050565b612bd2816129b6565b8114612bdd57600080fd5b50565b600081359050612bef81612bc9565b92915050565b600080600060608486031215612c0e57612c0d612927565b5b6000612c1c86828701612abf565b9350506020612c2d86828701612be0565b9250506040612c3e86828701612abf565b9150509250925092565b600080600060608486031215612c6157612c60612927565b5b6000612c6f86828701612b74565b9350506020612c8086828701612b74565b9250506040612c9186828701612abf565b9150509250925092565b6000819050919050565b612cae81612c9b565b8114612cb957600080fd5b50565b600081359050612ccb81612ca5565b92915050565b600060208284031215612ce757612ce6612927565b5b6000612cf584828501612cbc565b91505092915050565b612d0781612c9b565b82525050565b6000602082019050612d226000830184612cfe565b92915050565b612d3181612a9e565b82525050565b6000604082019050612d4c60008301856129c2565b612d596020830184612d28565b9392505050565b60008060408385031215612d7757612d76612927565b5b6000612d8585828601612cbc565b9250506020612d9685828601612b74565b9150509250929050565b600080fd5b600080fd5b7f4e487b7100000000000000000000000000000000000000000000000000000000600052604160045260246000fd5b612de282612a32565b810181811067ffffffffffffffff82111715612e0157612e00612daa565b5b80604052505050565b6000612e1461291d565b9050612e208282612dd9565b919050565b600067ffffffffffffffff821115612e4057612e3f612daa565b5b612e4982612a32565b9050602081019050919050565b82818337600083830152505050565b6000612e78612e7384612e25565b612e0a565b905082815260208101848484011115612e9457612e93612da5565b5b612e9f848285612e56565b509392505050565b600082601f830112612ebc57612ebb612da0565b5b8135612ecc848260208601612e65565b91505092915050565b60038110612ee257600080fd5b50565b600081359050612ef481612ed5565b92915050565b600080fd5b600080fd5b600060408284031215612f1a57612f19612efa565b5b612f246040612e0a565b90506000612f3484828501612be0565b6000830152506020612f4884828501612abf565b60208301525092915050565b6000806000806000806000610100888a031215612f7457612f73612927565b5b6000612f828a828b01612b74565b9750506020612f938a828b01612abf565b965050604088013567ffffffffffffffff811115612fb457612fb361292c565b5b612fc08a828b01612ea7565b955050606088013567ffffffffffffffff811115612fe157612fe061292c565b5b612fed8a828b01612ea7565b945050608088013567ffffffffffffffff81111561300e5761300d61292c565b5b61301a8a828b01612ea7565b93505060a061302b8a828b01612ee5565b92505060c061303c8a828b01612f04565b91505092959891949750929550565b60006020820190506130606000830184612d28565b92915050565b6000806040838503121561307d5761307c612927565b5b600061308b85828601612abf565b925050602061309c85828601612abf565b9150509250929050565b600060a08201905081810360008301526130c08188612a43565b905081810360208301526130d48187612a43565b905081810360408301526130e88186612a43565b905081810360608301526130fc8185612a43565b905061310b6080830184612d28565b9695505050505050565b6000806040838503121561312c5761312b612927565b5b600061313a85828601612abf565b925050602061314b85828601612ee5565b9150509250929050565b60006060828403121561316b5761316a612efa565b5b6131756060612e0a565b9050600082013567ffffffffffffffff81111561319557613194612eff565b5b6131a184828501612ea7565b600083015250602082013567ffffffffffffffff8111156131c5576131c4612eff565b5b6131d184828501612ea7565b602083015250604082013567ffffffffffffffff8111156131f5576131f4612eff565b5b61320184828501612ea7565b60408301525092915050565b60008060006060848603121561322657613225612927565b5b600061323486828701612abf565b935050602084013567ffffffffffffffff8111156132555761325461292c565b5b61326186828701612ea7565b925050604084013567ffffffffffffffff8111156132825761328161292c565b5b61328e86828701613155565b9150509250925092565b6000602082840312156132ae576132ad612927565b5b60006132bc84828501612b74565b91505092915050565b600080604083850312156132dc576132db612927565b5b60006132ea85828601612b74565b92505060206132fb85828601612be0565b9150509250929050565b600067ffffffffffffffff8211156133205761331f612daa565b5b61332982612a32565b9050602081019050919050565b600061334961334484613305565b612e0a565b90508281526020810184848401111561336557613364612da5565b5b613370848285612e56565b509392505050565b600082601f83011261338d5761338c612da0565b5b813561339d848260208601613336565b91505092915050565b600080600080608085870312156133c0576133bf612927565b5b60006133ce87828801612b74565b94505060206133df87828801612b74565b93505060406133f087828801612abf565b925050606085013567ffffffffffffffff8111156134115761341061292c565b5b61341d87828801613378565b91505092959194509250565b7f4e487b7100000000000000000000000000000000000000000000000000000000600052602160045260246000fd5b6003811061346957613468613429565b5b50565b600081905061347a82613458565b919050565b600061348a8261346c565b9050919050565b61349a8161347f565b82525050565b600060808201905081810360008301526134ba8187612a43565b905081810360208301526134ce8186612a43565b905081810360408301526134e28185612a43565b90506134f16060830184613491565b95945050505050565b6000806040838503121561351157613510612927565b5b600061351f85828601612b74565b925050602061353085828601612b74565b9150509250929050565b7f4e487b7100000000000000000000000000000000000000000000000000000000600052602260045260246000fd5b6000600282049050600182168061358157607f821691505b6020821081036135945761359361353a565b5b50919050565b7f56656869636c6520646f6573206e6f7420657869737400000000000000000000600082015250565b60006135d06016836129f7565b91506135db8261359a565b602082019050919050565b600060208201905081810360008301526135ff816135c3565b9050919050565b600060608201905061361b6000830186612b33565b6136286020830185612d28565b6136356040830184612b33565b949350505050565b60008190508160005260206000209050919050565b60006020601f8301049050919050565b600082821b905092915050565b60006008830261369f7fffffffffffffffffffffffffffffffffffffffffffffffffffffffffffffffff82613662565b6136a98683613662565b95508019841693508086168417925050509392505050565b6000819050919050565b60006136e66136e16136dc84612a9e565b6136c1565b612a9e565b9050919050565b6000819050919050565b613700836136cb565b61371461370c826136ed565b84845461366f565b825550505050565b600090565b61372961371c565b6137348184846136f7565b505050565b5b818110156137585761374d600082613721565b60018101905061373a565b5050565b601f82111561379d5761376e8161363d565b61377784613652565b81016020851015613786578190505b61379a61379285613652565b830182613739565b50505b505050565b600082821c905092915050565b60006137c0600019846008026137a2565b1980831691505092915050565b60006137d983836137af565b9150826002028217905092915050565b6137f2826129ec565b67ffffffffffffffff81111561380b5761380a612daa565b5b6138158254613569565b61382082828561375c565b600060209050601f8311600181146138535760008415613841578287015190505b61384b85826137cd565b8655506138b3565b601f1984166138618661363d565b60005b8281101561388957848901518255600182019150602085019450602081019050613864565b868310156138a657848901516138a2601f8916826137af565b8355505b6001600288020188555050505b505050505050565b7f52657061697220646f6573206e6f742065786973740000000000000000000000600082015250565b60006138f16015836129f7565b91506138fc826138bb565b602082019050919050565b60006020820190508181036000830152613920816138e4565b9050919050565b7f4e487b7100000000000000000000000000000000000000000000000000000000600052603260045260246000fd5b600060208201905061396b6000830184613491565b92915050565b6000604082019050818103600083015261398b8185612a43565b905061399a6020830184612d28565b9392505050565b600081905092915050565b60006139b7826129ec565b6139c181856139a1565b93506139d1818560208601612a08565b80840191505092915050565b60006139e982856139ac565b91506139f582846139ac565b91508190509392505050565b600081519050919050565b600082825260208201905092915050565b6000613a2882613a01565b613a328185613a0c565b9350613a42818560208601612a08565b613a4b81612a32565b840191505092915050565b6000608082019050613a6b6000830187612b33565b613a786020830186612b33565b613a856040830185612d28565b8181036060830152613a978184613a1d565b905095945050505050565b600081519050613ab18161295d565b92915050565b600060208284031215613acd57613acc612927565b5b6000613adb84828501613aa2565b91505092915050565b7f4e487b7100000000000000000000000000000000000000000000000000000000600052601260045260246000fd5b6000604082019050613b286000830185612b33565b613b356020830184612cfe565b9392505050565b6000604082019050613b516000830185612b33565b613b5e6020830184612d28565b939250505056fea2646970667358221220f8b7cd93bea1f1c9fb088b170c21f1ce9fb9e183aeb657b62507de0330344d6e64736f6c63430008180033",
  "linkReferences": {},
  "deployedLinkReferences": {}
}